:020000040000FA
:060000000A128A110C280F
:10000800FE00030EF8000A08F9000A128A111629E0
:100018000A128A110F28F001F101F201F301F4012B
:10002800F50183120313A001A101A201A301830119
:100038000A128A11822983120313A60069289F12C3
:100048001F129F111F119D289F121F129F111F150C
:100058009D289F121F129F151F119D289F121F1266
:100068009F151F159D289F121F169F111F119D2850
:100078009F121F169F111F159D289F121F169F154F
:100088001F119D289F121F169F151F159D289F162B
:100098001F129F111F119D289F161F129F111F15B8
:1000A8009D289F161F129F151F119D289F161F120E
:1000B8009F151F159D289F161F169F111F119D28FC
:1000C8009F161F169F111F159D282608A400A5011D
:1000D8002508003A031971289D282408003A0319B5
:1000E8002328013A03192828033A03192D28013A2D
:1000F80003193228073A03193728013A03193C280B
:10010800033A03194128013A031946280F3A0319FB
:100118004B28013A03195028033A03195528013A84
:1001280003195A28073A03195F28013A0319642862
:100138009D281F08080083120313A600F3288316BE
:1001480003130F178F160F168F110F158F100F141B
:100158001529831603130F178F160F128F110F15FA
:100168008F100F141529831603130F178F120F16EC
:100178008F110F158F100F141529831603130F17DE
:100188008F120F128F110F158F100F141529831648
:1001980003130F138F160F168F110F158F100F14CF
:1001A8001529831603130F138F160F128F110F15AE
:1001B8008F100F141529831603130F138F120F16A0
:1001C8008F110F158F100F141529831603130F1392
:1001D8008F120F128F110F118F140F141529260863
:1001E800A400A5012508003A0319FB2815292408AD
:1001F800003A0319A328013A0319AD28033A031951
:10020800B728013A0319C128073A0319CB28013A3C
:100218000319D528033A0319DF28013A0319E928F5
:10022800152908008B13831203130C1F1C291D2981
:1002380025291E08F600F7017608F0007708F10076
:100248000C138C1D282929297A291412941B2D296D
:100258002E293229141F3129322939291308F60089
:100268007608F50094131413141683160313941ABE
:100278003E293F295729141942294329572983120E
:1002880003131308F6007608F50083160313141CED
:100298004E294F294929831203131308F6007608BB
:1002A800F40014167829941A5A295B297829141D00
:1002B8005E295F297829831203131308F60076084C
:1002C800F5008316031314107008831203139300A8
:1002D80014166330F600F60B6F2972298316031380
:1002E800141877297829722983128C118B177908A9
:1002F8008A00780E8300FE0E7E0E09000A128A110B
:100308001B220A128A1101300A128A119F200A122E
:100318008A110A128A1128220A128A1101300A1235
:100328008A11DD210A128A1109300A128A111F2046
:100338000A128A1101300A128A11BA210A128A1184
:10034800103083120313A4000030A5000A128A118A
:10035800FE210A128A11831203139F18B429B529A2
:10036800AF299F14AF290A128A110C28831203138C
:10037800A600CC29831603130C13831203130C1342
:10038800DC29831603130C17831203130C13DC29BF
:100398002608A400A5012508003A0319D429DC2958
:1003A8002408003A0319BE29013A0319C529DC2992
:1003B800080083120313A600EA299F131F13FD29BF
:1003C8009F131F17FD299F171F13FD292608A40037
:1003D800A5012508003A0319F229FD292408003A45
:1003E8000319E129013A0319E429023A0319E72913
:1003F800FD29080080308316031394008312031329
:1004080024088316031393003630831203139400D1
:100418000130831603139100871507168B170B17E6
:10042800831203138C11831603138C15080083168B
:1004380003130614861486118615061683160317E9
:100448008801891489150800831203131F14831661
:0A04580003139F139F121F120800E8
:04400E00D4E0FFFFFC
:00000001FF
