:020000040000FA
:060000000A128A110E280D
:10000800FE00030EF5000408F6000A08F7000A12BD
:100018008A111B280A128A111128F801F901FA011C
:10002800FB01FC01FD0183010A128A11722A8B135C
:10003800831203130C1F2128222843289F1E2528DA
:10004800262843281F1A29282A2843289F192D289B
:100058002E2843281F1D3128322843281E08F30064
:10006800F4017308F8007408F90008300A128A11BC
:10007800DF200A128A11831203130C1367280C1F3E
:100088004628472867289F1E4A284B2867281F1A92
:100098004E284F2867289F195228532867281F1968
:1000A8005628572867281E08F300F4017308FA0039
:1000B8007408FB0009300A128A11DF200A128A111B
:1000C800831203130C138C1D6A286B28D52814126D
:1000D800941B6F2870287428141F732874287B2891
:1000E8001308F3007308FD009413141314168316F1
:1000F8000313941A8028812899281419842885289C
:100108009928831203131308F3007308FD0083165C
:100118000313141C902891288B28831203131308A7
:10012800F3007308FC001416D328941A9C289D2801
:10013800D328141DA028A128D32883120313130839
:10014800F3007308FD008316031314107C03031DCA
:10015800AE28AF28B928831203131308F3007308D5
:10016800FD00780893001416C82802307C06031D89
:10017800BE28BF28C828831203131308F300730886
:10018800FD007A08930014166330F300F30BCA28B5
:10019800CD28831603131418D228D328CD28831208
:1001A8008C118B1777088A0076088400750E8300F7
:1001B800FE0E7E0E0900F2004329831203139F12DC
:1001C8001F129F111F117729831203139F121F12E9
:1001D8009F111F157729831203139F121F129F1552
:1001E8001F117729831203139F121F129F151F15C2
:1001F8007729831203139F121F169F111F11772946
:10020800831203139F121F169F111F15772983123C
:1002180003139F121F169F151F11772983120313AB
:100228009F121F169F151F157729831203139F16F8
:100238001F129F111F117729831203139F161F1274
:100248009F111F157729831203139F161F129F15DD
:100258001F117729831203139F161F129F151F154D
:100268007729831203139F161F169F111F117729D1
:10027800831203139F161F169F111F1577297208E3
:10028800F000F1017108003A03194B297729700829
:10029800003A0319E128013A0319E828033A031937
:1002A800EF28013A0319F628073A0319FD28013AFD
:1002B80003190429033A03190B29013A03191229CE
:1002C8000F3A03191929013A03192029033A031986
:1002D8002729013A03192E29073A03193529013A22
:1002E80003193C297729831203131F080800831276
:1002F8000313A200C5299F121F129F111F11F9296C
:100308009F121F129F111F15F9299F121F129F1567
:100318001F11F9299F121F129F151F15F9299F12E6
:100328001F169F111F11F9299F121F169F111F15C4
:10033800F9299F121F169F151F11F9299F121F16C1
:100348009F151F15F9299F161F129F111F11F929B3
:100358009F161F129F111F15F9299F161F129F150F
:100368001F11F9299F161F129F151F15F9299F168E
:100378001F169F111F11F9299F161F169F111F1570
:10038800F9292208A000A1012108003A0319CD2962
:10039800F9292008003A03197F29013A0319842909
:1003A800033A03198929013A03198E29073A0319CF
:1003B8009329013A03199829033A03199D29013A07
:1003C8000319A2290F3A0319A729013A0319AC29DD
:1003D800033A0319B129013A0319B629073A03194F
:1003E800BB29013A0319C029F9291F0808008312FB
:1003F8000313A2004F2A831603130F178F160F1625
:100408008F110F158F100F14712A831603130F17EE
:100418008F160F128F110F158F100F14712A831654
:1004280003130F178F120F168F110F158F100F143C
:10043800712A831603130F178F120F128F110F15BE
:100448008F100F14712A831603130F138F160F16AC
:100458008F110F158F100F14712A831603130F13A2
:100468008F160F128F110F158F100F14712A831604
:1004780003130F138F120F168F110F158F100F14F0
:10048800712A831603130F138F120F128F110F1176
:100498008F140F14712A2208A000A1012108003A24
:1004A8000319572A712A2008003A0319FF29013A2B
:1004B8000319092A033A0319132A013A03191D2AB1
:1004C800073A0319272A013A0319312A033A03196B
:1004D8003B2A013A0319452A712A08000A128A118F
:1004E8000B230A128A1101300A128A11FB210A12FF
:1004F8008A110A128A1118230A128A1101300A1263
:100508008A11CD220A128A1109300A128A117B2116
:100518000A128A1101300A128A11AA220A128A11B1
:10052800103083120313A0000030A1000A128A11B0
:10053800EE220A128A11831203139F18A42AA52AED
:100548009F2A9F149F2A0A128A110E2883120313C6
:10055800A200BC2A831603130C13831203130C1373
:10056800CC2A831603130C17831203130C13CC2AFB
:100578002208A000A1012108003A0319C42ACC2AA4
:100588002008003A0319AE2A013A0319B52ACC2AE1
:10059800080083120313A200DA2A9F131F13ED2AFF
:1005A8009F131F17ED2A9F171F13ED2A2208A0007B
:1005B800A1012108003A0319E22AED2A2008003A8D
:1005C8000319D12A013A0319D42A023A0319D72A5E
:1005D800ED2A080080308316031394008312031356
:1005E80020088316031393003630831203139400F4
:1005F8000130831603139100871507168B170B1705
:10060800831203138C11831603138C1508008316A9
:100618000313061486148611861506168316031707
:100628008801891489150800831203131F1483167F
:0A06380003139F139F121F12080006
:04400E00D4E0FFFFFC
:00000001FF
