:020000040000FA
:060000000A128A110C280F
:10000800FE00030EF8000A08F9000A128A111928DE
:100018000A128A110F28F001F101F201F301F4012B
:10002800F50183010A128A11B8298B13831203136D
:100038000C1F1F2820283D289F1E232824283D28E0
:100048001F1A272828283D289F192B282C283D28A7
:100058001F1D2F2830283D281E08F600F7017608B6
:10006800F0007708F1009F161F129F111F110C1343
:100078005D280C1F402841285D289F1E44284528DC
:100088005D281F1A482849285D289F194C284D28A3
:100098005D281F19502851285D281E08F600F70111
:1000A8007608F2007708F3009F161F129F111F159C
:1000B8000C138C1D60286128B9281412941B65281C
:1000C80066286A28141F69286A2871281308F60008
:1000D8007608F50094131413141683160313941A50
:1000E80076287728962814197A287B289628831248
:1000F80003131308F6007608F5008C1114168316FE
:100108000313141C882889288328831203131308CF
:10011800F6007608F400740885005330F600F60BF4
:100128009328B628941A99289A28B628141D9D2829
:100138009E28B628831203131308F6007608F500E4
:1001480083160313141070088312031393001416F4
:100158005330F600F60BAE28831603131418B5288F
:10016800B628B028831203138C118B1779088A00DC
:10017800780E8300FE0E7E0E090083120313A20080
:100188000B299F121F129F111F113F299F121F1227
:100198009F111F153F299F121F129F151F113F29DD
:1001A8009F121F129F151F153F299F121F169F117F
:1001B8001F113F299F121F169F111F153F299F12BC
:1001C8001F169F151F113F299F121F169F151F15D8
:1001D8003F299F161F129F111F113F299F161F129B
:1001E8009F111F153F299F161F129F151F113F2989
:1001F8009F161F129F151F153F299F161F169F1127
:100208001F113F299F161F169F111F153F292208EE
:10021800A000A1012108003A031913293F29200849
:10022800003A0319C528013A0319CA28033A0319E1
:10023800CF28013A0319D428073A0319D928013AD3
:100248000319DE28033A0319E328013A0319E828B9
:100258000F3A0319ED28013A0319F228033A031952
:10026800F728013A0319FC28073A03190129013A2A
:10027800031906293F291F08080083120313A20047
:100288009529831603130F178F160F168F110F1545
:100298008F100F14B729831603130F178F160F1219
:1002A8008F110F158F100F14B729831603130F170B
:1002B8008F120F168F110F158F100F14B729831671
:1002C80003130F178F120F128F110F158F100F14A2
:1002D800B729831603130F138F160F168F110F15D7
:1002E8008F100F14B729831603130F138F160F12CD
:1002F8008F110F158F100F14B729831603130F13BF
:100308008F120F168F110F158F100F14B729831620
:1003180003130F138F120F128F110F118F140F1455
:10032800B7292208A000A1012108003A03199D2934
:10033800B7292008003A03194529013A03194F291A
:10034800033A03195929013A03196329073A03198A
:100358006D29013A03197729033A03198129013ACA
:1003680003198B29B72908000A128A1153220A1285
:100378008A1101300A128A1141210A128A110A12BD
:100388008A1163220A128A1101300A128A1115226F
:100398000A128A1109300A128A11C1200A128A1116
:1003A80001300A128A11F2210A128A118B131030B5
:1003B80083120313A0000030A1000A128A1136220A
:1003C8000A128A118B17831203139F18EC29ED293F
:1003D800E7299F14E7290A128A110C2883120313AC
:1003E800A200042A831603130C13831203130C139D
:1003F800142A831603130C17831203130C13142ADD
:100408002208A000A1012108003A03190C2A142A85
:100418002008003A0319F629013A0319FD29142A7C
:10042800080083120313A200222A9F131F13352AE0
:100438009F131F17352A9F171F13352A2208A0005C
:10044800A1012108003A03192A2A352A2008003A6E
:100458000319192A013A03191C2A023A03191F2AF7
:10046800352A08008030831603139400831203137F
:100478002008831603139300363083120313940065
:100488000130831603139100871507168B170B1776
:10049800831203138C11831603138C15080083161B
:1004A800031385018312031385018316031386152D
:1004B8000615831603178801891489150800831205
:1004C80003131F14831603139F139F121F12080090
:04400E00D4E0FFFFFC
:00000001FF
