:020000040000FA
:060000000A128A110C280F
:10000800FE00030EF1000A08F2000A128A111528F0
:100018000A128A110F28F501F60183010A128A11C2
:1000280095288B13831203138C1D1B281C287428F6
:100038001412941B202821282528141F2428252839
:100048002C281308F0007008F600941314131416E3
:1000580083160313941A3128322851281419352885
:1000680036285128831203131308F0007008F6008D
:100078008C11141683160313141C432844283E2895
:10008800831203131308F0007008F5007508850043
:100098005330F000F00B4E287128941A5428552834
:1000A8007128141D5828592871288312031313081E
:1000B800F0007008F600831603131410831203135C
:1000C8000808930014165330F000F00B69288316C3
:1000D80003131418702871286B28831203138C11CA
:1000E8008B1772088A00710E8300FE0E7E0E0900BF
:1000F80080308316031394007308930036308312FC
:100108000313940001308316031391008715071613
:100118008B170B17831203138C11831603138C157B
:1001280008000A128A11A7200A128A114030F30027
:100138000030F4000A128A117C200A128A11A328BE
:100148000A128A110C28FF308316031388008312C1
:0E01580003138801831603178801890108002C
:04400E00D4E0FFFFFC
:00000001FF
