:020000040000FA
:060000000A128A110C280F
:10000800FE00030EF1000A08F2000A128A118C2879
:100018000A128A110F28F701F801F901FA01830180
:100028000A128A114729F5006928831603130F1746
:100038008F160F168F110F158F100F148B2883161C
:1000480003130F178F160F128F110F158F100F1420
:100058008B28831603130F178F120F168F110F1586
:100068008F100F148B28831603130F178F120F127C
:100078008F110F158F100F148B28831603130F136E
:100088008F160F168F110F158F100F148B288316CC
:1000980003130F138F160F128F110F158F100F14D4
:1000A8008B28831603130F138F120F168F110F153A
:1000B8008F100F148B28831603130F138F120F1230
:1000C8008F110F118F140F148B287508F300F4018A
:1000D8007408003A031971288B287308003A031929
:1000E8001928013A03192328033A03192D28013A3C
:1000F80003193728073A03194128013A03194B28ED
:10010800033A03195528013A03195F288B28080078
:10011800831203138C1D91289228E3281412941B30
:10012800962897289B28141F9A289B28A2281308EA
:10013800F0007008FA0094131413141683160313AE
:10014800941AA728A828C0281419AB28AC28C028B6
:10015800831203131308F0007008FA0083160313C0
:10016800141CB728B828B228831203131308F00008
:100178007008F9001416E128941AC328C428E12845
:10018800141DC728C828E128831203131308F00098
:100198007008FA00831603131410770883120313E8
:1001A800930014166330F000F00BD828DB28831670
:1001B80003131418E028E128DB2883128C11720835
:1001C8008A00710E8300FE0E7E0E09001A3083121B
:1001D8000313A100F730A000A00BF028A10BF02812
:1001E800F52830300A128A1101220A128A110730C2
:1001F80083120313A1007C30A000A00B0129A10BDE
:100208000129000030300A128A1101220A128A11CB
:10021800C73083120313A0001129A00B1029142939
:1002280030300A128A1101220A128A11C730831249
:100238000313A0001F29A00B1E29222938300A12F7
:100248008A1101220A128A1110300A128A11012217
:100258000A128A1101300A128A1101220A128A111D
:1002680006300A128A1101220A128A110C300A1267
:100278008A1101220A128A1180300A128A11012277
:100288000A128A1108000A128A11ED210A128A112B
:1002980001300A128A1117200A128A110A128A11C9
:1002A800EA200A128A110A128A111E220A128A11D7
:1002B80001300A128A1191210A128A1100300A1299
:1002C8008A1112220A128A111030F3000030F40049
:1002D8000A128A11BE210A128A11831203138F018E
:1002E8008E0106140330F600F60B782983120313E7
:1002F8000610861C802981297D29101486188529D5
:100308008629822910108B130F08F8000E08F700B1
:100318008B1771290A128A110C28F500A729831254
:10032800031390121012BD29831203139012101692
:10033800BD298312031390161012BD2983120313CB
:1003480090161016BD297508F300F4017408003AD8
:100358000319AF29BD297308003A03199329013AF3
:1003680003199829033A03199D29013A0319A22967
:10037800BD29080080308316031394007308930086
:10038800363083120313940001308316031391004F
:10039800871507168B170B17831203138C118316F7
:1003A80003138C150800F301F4010130F307031857
:1003B800F40A0030F4077408803AFF0080307F02A6
:1003C800031DE82932307302031CEB29EC29D929D3
:1003D80008008312031306108610831603130610F1
:1003E8008614850183120313850183160317880178
:1003F80089018316031389010800F5007508831223
:10040800031385000910891009150A128A11D721CA
:100418000A128A118312031309110800F300730CDE
:1004280083160313031C0C1003180C1483120313F4
:100438000C10080083120313901190101014080078
:04400E00D4E0FFFFFC
:00000001FF
