:020000040000FA
:060000000A128A110C280F
:10000800FE00030EF0000A08F1000A128A11DE2E23
:100018000A128A110F28FA01FB0183010A128A11B8
:10002800F229831203132D088039AE002E08B70079
:100038002D08AE002E07AF002F08BE00AC1F2528E4
:10004800262827283E143E0803192B282C283C284C
:100058003E0A031D3028312839280030AD00003011
:10006800AC000030AB000030AA00AC17AD0144284A
:100078000030AD000030AC000030AB000030AA000A
:1000880029088039AE002E08B7062908AE002E07C9
:10009800AF002F08BF00A81F5228532854283F1428
:1000A8003F0803195828592869283F0A031D5D2865
:1000B8005E2866280030A9000030A8000030A7009C
:1000C8000030A600A817A90171280030A900003047
:1000D800A8000030A7000030A6002908280427043B
:1000E8002604031D7828792892280030AD000030B6
:1000F800AC000030AB000030AA008030AC047F3088
:10010800AD043708AE002E08AD042D08A9002C0850
:10011800A8002B08A7002A08A600F1293E08031DFD
:1001280096289728A0280030A9000030A8000030A1
:10013800A7000030A600F1293E08AE00AF012F0845
:10014800B1003F082E02B000031CB10330087F3E07
:10015800B80031080318013E003EB9002D08B6006A
:100168002C08B5002B08B4002A08B3000030AD00F5
:100178000030AC000030AB000030AA000030BD00F9
:100188000030BC000030BB000030BA00BF011629A7
:100198003F080319D028D128F1280130AE000310F8
:1001A800B30DB40DB50DB60DAE0BD3280130AE00AE
:1001B8000310AA0DAB0DAC0DAD0DAE0BDC28BD1FA9
:1001C800E628E728E8282A140130AE000310BA0D03
:1001D800BB0DBC0DBD0DAE0BEA2829083602031D68
:1001E800FF2828083502031DFF2827083402031DAD
:1001F800FF2826083302031C0229032912293D1768
:100208002608B3022708031C270FB4022808031C7A
:10021800280FB5022908031C290FB6020130AE00C9
:100228002E08BF071A303F02031C1B291C29CC28A3
:1002380036083504340433040319232924294329AF
:100248003A1443290130AE000310AA0DAB0DAC0DD2
:10025800AD0DAE0B2829BD1F3229332934292A14A4
:100268000130AE000310BA0DBB0DBC0DBD0DAE0BB9
:100278003629FF30B8070318B90AFF30B907AC1F91
:10028800462947292629BF01BD1F4B294C29682922
:10029800FF303A05AE00FF303B05AF00FF303C05AC
:1002A800B0007F303D05B100310830042F042E0422
:1002B80003195F2960296329BF01BF0A68292A1C1D
:1002C80066296729682960293F0803196C296D295F
:1002D8009E290130AA07003003180130AB0700300F
:1002E80003180130AC07003003180130AD072D1C8E
:1002F8007E297F299E292A08AE002B08AF002C08EA
:10030800B0002D08B1000130B200310DB10CB00CB5
:10031800AF0CAE0CB20B89293108AD003008AC0027
:100328002F08AB002E08AA000130B8070318B90A35
:100338000030B9073908803AFF0080307F02031D7A
:10034800A729FF303802031CAA29AB29B929FF3095
:1003580083120313B8000030B9000030AD0000303C
:10036800AC000030AB000030AA0083120313390838
:10037800803AFF0080307F02031DC4290130380213
:100388000318C729C829D52983120313B801B9014D
:100398000030AD000030AC000030AB000030AA00E7
:1003A800B701831203133808AE002E08BE003E1CA6
:1003B800DE29DF29E129AC17E5297F30AE002E08B8
:1003C800AC053E08AE0003102E0CAF002F08AD00A0
:1003D8003708AE002E08AD04892808000A128A11D1
:1003E80083260A128A1101300A128A1172240A120B
:1003F8008A110A128A11A9250A128A110A128A1167
:10040800E5260A128A1101300A128A11FF250A12FA
:100418008A1100300A128A11D2260A128A1183120E
:1004280003138F018E010614023083120313CB00CD
:10043800CB0B1C2A0000831203130610861C252AE6
:10044800262A222A101486182A2A2B2A272A10102C
:100458000F08FB000E08FA007A08F2007B08F30088
:100468000030F31BFF30F400F50001300A128A1146
:100478003A230A128A11750883120313AD0074080F
:10048800AC007308AB007208AA004130A900EB3039
:10049800A8004B30A700C730A6000A128A11152001
:1004A8000A128A11831203132908C3002808C200FC
:1004B8002708C1002608C0000A128A11F6230A126A
:1004C8008A11831203134108FB004008FA007A08D6
:1004D800013EFA007B080318013E003EFB00F501CF
:1004E800F50A01300A128A1151260A128A110A12D3
:1004F8008A116D260A128A1101300A128A112C26D5
:100508000A128A110A128A116D260A128A110330F8
:1005180083120313CB004B08F50002300A128A112C
:1005280051260A128A110A128A116D260A128A1194
:100538000A30F2000030F3007B08F5007A08F40076
:100548000A128A1150250A128A1172080A128A118F
:10055800B8260A128A110A128A116D260A128A11FD
:10056800023083120313CB004B08F50002300A1245
:100578008A1151260A128A110A128A116D260A1244
:100588008A110A30F2000030F3007B08F5007A087F
:10059800F4000A128A11E7240A128A117308FB0070
:1005A8007208FA000A30F2000030F3007B08F50008
:1005B8007A08F4000A128A1150250A128A11720860
:1005C8000A128A11B8260A128A110A128A116D268D
:1005D8000A128A11F501F50A02300A128A11512607
:1005E8000A128A110A128A116D260A128A110A3011
:1005F800F2000030F3007B08F5007A08F4000A12D4
:100608008A11E7240A128A117308FB007208FA009B
:100618000A30F2000030F3007B08F5007A08F40095
:100628000A128A1150250A128A1172080A128A11AE
:10063800B8260A128A11043083120313CB004B0820
:10064800F50002300A128A1151260A128A110A127A
:100658008A116D260A128A1104300A128A112C2670
:100668000A128A11132A0A128A110C2883120313F8
:10067800A00020080319412B422B562BF51F452BB0
:10068800462B562B7209A2007309A3007409A40013
:100698007509A500A20A0319A30A0319A40A0319D4
:1006A800A50A5E2B7508A5007408A4007308A300AA
:1006B8007208A2007508740473047204031D652B84
:1006C800662B6F2B0030F5000030F4000030F3008B
:1006D8000030F200F52B9630F6007608A100812B49
:1006E8000130F6007608A10701300310A50CA40C10
:1006F800A30CA20CFF3E031D792BFE302505031D1C
:10070800862B872B742BA32B0130F6007608A107C4
:100718000130A207003003180130A3070030031886
:100728000130A407003003180130A5070130031079
:10073800A50CA40CA30CA20CFF3E031D9B2BFF30A1
:100748002505031DA82BA92B882BB52B0130A10249
:100758000130F6000310A20DA30DA40DA50DF60B94
:10076800AE2BA41BB82BB92BBF2B023021020318C8
:10077800BE2BBF2BAA2B2118C22BC32BCB2BFF3090
:10078800A205FF30A3057F30A405FF30A50503109F
:10079800A10C2108F600F701F801F901183003103F
:1007A800F60DF70DF80DF90DFF3E031DD32B760856
:1007B800A2047708A3047808A4047908A5042008EB
:1007C8000319E72BE82BED2BF51FEB2BEC2BED2B6F
:1007D800A5172508F5002408F4002308F3002208CB
:1007E800F2000800031083120313420D430DC400E6
:1007F8004408CA004A08031D022C032C0C2C0030A4
:10080800C3000030C2000030C1000030C000712CAD
:100818004008C4004108C5004208C6004308C70094
:100828001F300310C70CC60CC50CC40CFF3E031DBB
:10083800152C4408C8004808C900C217FF30C00575
:10084800FF30C105FF30C2050030C3059630CA022B
:10085800CA1F2F2C302C4A2C4A08803A973E03187E
:10086800362C372C382C032C01300310C30CC20C47
:10087800C10CC00CFF3E031D392C0130C4004408D4
:10088800CA07031D482C492C382C612C20304A02F9
:10089800031C4F2C502C5C2C032C0130C40003107B
:1008A800C00DC10DC20DC30DC40B532C0130CA02BB
:1008B8004A08031D602C612C512C49080319652C2A
:1008C800662C712CC009C109C209C309C00A0319E1
:1008D800C10A0319C20A0319C30A0800F400C42C88
:1008E800831603130F178F160F168F110F158F10FE
:1008F8000F14E62C831603130F178F160F128F1180
:100908000F158F100F14E62C831603130F178F1271
:100918000F168F110F158F100F14E62C8316031363
:100928000F178F120F128F110F158F100F14E62C3F
:10093800831603130F138F160F168F110F158F10B1
:100948000F14E62C831603130F138F160F128F1133
:100958000F158F100F14E62C831603130F138F1225
:100968000F168F110F158F100F14E62C8316031313
:100978000F138F120F128F110F118F140F14E62CF3
:100988007408F200F3017308003A0319CC2CE62C22
:100998007208003A0319742C013A03197E2C033AA1
:1009A8000319882C013A0319922C073A03199C2C35
:1009B800013A0319A62C033A0319B02C013A03197A
:1009C800BA2CE62C080083120313A101F31FED2CA7
:1009D800EE2CF52CF209F309F20A0319F30AA10126
:1009E800A10AF51FF82CF92C022DF409F509F40ACF
:1009F8000319F50A0130F6007608A106A201A30141
:100A0800720873040319092D0A2D412DA001A00AAB
:100A1800182D01300310F20DF30DFF3E031D0E2DAE
:100A28000130F6007608A007F31F1B2D1C2D0D2D95
:100A380001300310A20DA30DFF3E031D1D2D7308E9
:100A48007502031D292D72087402031C2C2D2D2DEF
:100A5800342D7208F4027308031CF503F5022214FE
:100A680001300310F30CF20CFF3E031D352D01304D
:100A7800A002031D402D412D1C2D21080319452DD1
:100A8800462D4B2DA209A309A20A0319A30A23087C
:100A9800F3002208F2000800F801F51F542D552D27
:100AA8005C2DF409F509F40A0319F50AF801F80AA6
:100AB800F31F5F2D602D652DF209F309F20A031962
:100AC800F30A7208730403196A2D6B2D9A2DF70126
:100AD800F70A792D01300310F20DF30DFF3E031DC7
:100AE8006F2D0130F6007608F707F31F7C2D7D2D5A
:100AF8006E2D73087502031D832D72087402031C82
:100B0800862D872D8D2D7208F4027308031CF503BA
:100B1800F50201300310F30CF20CFF3E031D8E2D7D
:100B28000130F702031D992D9A2D7D2D78080319A0
:100B38009E2D9F2DA42DF409F509F40A0319F50A31
:100B48007508F3007408F20008001A30F600F8304F
:100B5800F500F50BAD2DF60BAD2D000030300A1267
:100B68008A1197260A128A110730F6007D30F5009F
:100B7800F50BBC2DF60BBC2D30300A128A119726C6
:100B88000A128A11C730F500C92DF50BC82DCC2DD6
:100B9800CD2D30300A128A1197260A128A11C730D1
:100BA800F500D62DF50BD52DD92DDA2D38300A12B2
:100BB8008A1197260A128A1110300A128A1197266A
:100BC8000A128A1101300A128A1197260A128A110A
:100BD80006300A128A1197260A128A110C300A1254
:100BE8008A1197260A128A1180300A128A119726CA
:100BF8000A128A110800F400152E831203139012AA
:100C080010122B2E83120313901210162B2E831200
:100C18000313901610122B2E83120313901610161E
:100C28002B2E7408F200F3017308003A03191D2EE5
:100C38002B2E7208003A0319012E013A0319062EC9
:100C4800033A03190B2E013A0319102E2B2E080014
:100C5800F800442E780884000A128A11C6260A125F
:100C68008A11F600F7017608F4007708F5000A12F1
:100C78008A11A8260A128A110130F6007608F807A8
:100C8800780884000A128A11C6260A128A11003AC4
:100C9800031D4F2E502E2E2E0800F6007603031D3E
:100CA800562E572E5F2E7508803E0A128A119726F7
:100CB8000A128A116C2E02307606031D642E652EE8
:100CC8006C2E7508C03E0A128A1197260A128A11DC
:100CD8000800F201F3010130F2070318F30A0030AB
:100CE800F3077308803AFF0080307F02031D7E2ED1
:100CF80032307202031C812E822E6F2E080083125E
:100D08000313061086108316031306108614850134
:100D1800831203138501831603178801890183163B
:100D2800031389010800F400740883120313850073
:100D38000910891009150A128A116D260A128A11DA
:100D48008312031309110800740883120313850022
:100D58000914891009150A128A116D260A128A11B6
:100D68008312031309110800F6007608303EF400D8
:100D7800003003180130F5000A128A11A8260A1259
:100D88008A11080006308A000408840A82070034A1
:100D980064343A34003463346D340034F200720C35
:100DA80083160313031C0C1003180C14831203136B
:100DB8000C10080071088A00700E8300FE0E7E0E6B
:0E0DC8000900831203139011901010140800FC
:04400E00D4E0FFFFFC
:00000001FF
