:020000040000FA
:060000000A128A11F82F1C
:100AA600831203131F14831603139F139F121F121F
:100AB60008000A128A116E250A128A118316031378
:100AC600111408000A128A116E250A128A11831659
:100AD600031311150800831603131419732D742DAF
:100AE6006E2D11081F39031D792D7A2D6E2D0800E4
:100AF6000A128A116E250A128A11700883120313CC
:100B06009300831603131418892D8A2D842D08004B
:100B16008316031788010916831603130614850125
:100B2600FF30880083120313850188010030A3007B
:100B36000130A2008630A100A030A0000A128A115E
:100B4600CC250A128A110800F200B82D831203136D
:100B56009F131F13CB2D831203139F131F17CB2D28
:100B6600831203139F171F13CB2D7208F000F10198
:100B76007108003A0319C02DCB2D7008003A0319ED
:100B8600A92D013A0319AE2D023A0319B32DCB2D27
:100B9600080028308312031394008316031391016F
:100BA600831203132008A4002108A5002208A6002A
:100BB6002308A70002300310A40DA50DA60DA70D4E
:100BC600FF3E031DDE2D2708F3002608F200250848
:100BD600F1002408F0000030F7003D30F60009303F
:100BE600F5000030F4000A128A1104260A128A114E
:100BF6007008FF3E831603139300940187150716AA
:100C060008000030FC000030FB000030FA00003025
:100C1600F90073087204710470040319132E142E5C
:100C2600612EFD01FD0A242E0130F8000310F00D9F
:100C3600F10DF20DF30DF80B192E0130F8007808BE
:100C4600FD07F31F272E282E172E0130F80003105C
:100C5600F90DFA0DFB0DFC0DF80B2A2E7308770221
:100C6600031D3F2E72087602031D3F2E7108750282
:100C7600031D3F2E70087402031C422E432E522E73
:100C86007008F4027108031C710FF5027208031C48
:100C9600720FF6027308031C730FF7027914013002
:100CA6000310F30CF20CF10CF00CFF3E031D532E57
:100CB6000130FD02031D602E612E282E7C08F300F4
:100CC6007B08F2007A08F1007908F0000800F200CB
:100CD600BC2E831603130F178F160F168F110F15C1
:100CE6008F100F14DE2E831603130F178F160F1295
:100CF6008F110F158F100F14DE2E831603130F1787
:100D06008F120F168F110F158F100F14DE2E8316EC
:100D160003130F178F120F128F110F158F100F1449
:100D2600DE2E831603130F138F160F168F110F1552
:100D36008F100F14DE2E831603130F138F160F1248
:100D46008F110F158F100F14DE2E831603130F133A
:100D56008F120F168F110F158F100F14DE2E83169C
:100D660003130F138F120F128F110F118F140F14FD
:100D7600DE2E7208F000F1017108003A0319C42E44
:100D8600DE2E7008003A03196C2E013A0319762EEE
:100D9600033A0319802E013A03198A2E073A0319DA
:100DA600942E013A03199E2E033A0319A82E013AEE
:100DB6000319B22EDE2E08000A128A118B250A129A
:100DC6008A1101300A128A116A260A128A110A1237
:100DD6008A1153250A128A110C300A128A115F27CA
:100DE6000A128A1101300A128A11A7250A128A11DB
:100DF6001F3083120313A8002808AC00FF30A80098
:100E06002808AB000A128A115C250A128A11503092
:100E1600F0000030F1000A128A117B250A128A11AD
:100E26001F30F0000030F1000A128A117B250A12E9
:100E36008A110A128A1165250A128A110230831252
:100E46000313AA000430A900B930A800A80B292F63
:100E5600A90B292FAA0B292F302F0A128A115C25DC
:100E66000A128A115030F0000030F1000A128A117D
:100E76007B250A128A11FF30F0000030F1000A12B9
:100E86008A117B250A128A110A128A1165250A120D
:100E96008A11023083120313AA000430A900B93064
:100EA600A800A80B542FA90B542FAA0B542F5B2F65
:100EB600FB2E0A128A110028F200C32F8312031395
:100EC6009F121F129F111F11F72F831203139F12D8
:100ED6001F129F111F15F72F831203139F121F1244
:100EE6009F151F11F72F831203139F121F129F15B1
:100EF6001F15F72F831203139F121F169F111F1121
:100F0600F72F831203139F121F169F111F15F72F1A
:100F1600831203139F121F169F151F11F72F83129B
:100F260003139F121F169F151F15F72F8312031306
:100F36009F161F129F111F11F72F831203139F165F
:100F46001F129F111F15F72F831203139F161F12CF
:100F56009F151F11F72F831203139F161F129F153C
:100F66001F15F72F831203139F161F169F111F11AC
:100F7600F72F831203139F161F169F111F15F72FA6
:100F86007208F000F1017108003A0319CB2FF72F10
:100F96007008003A0319612F013A0319682F033AC2
:100FA60003196F2F013A0319762F073A03197D2F7C
:100FB600013A0319842F033A03198B2F013A0319B7
:100FC600922F0F3A0319992F013A0319A02F033ACA
:100FD6000319A72F013A0319AE2F073A0319B52FA4
:100FE600013A0319BC2FF72F080083120313AB0134
:0A0FF600AC0183010A128A11DF2EFC
:04400E00D4E0FFFFFC
:00000001FF
