:020000040000FA
:060000000A128A11F62F1E
:100B1C008312031390119010101408000A128A11FA
:100B2C00A9250A128A118316031311150800F00067
:100B3C00700C83160313031C0C1003180C14831273
:100B4C0003130C100800831603131419AE2DAF2DCC
:100B5C00A92D11081F39031DB42DB52DA92D080081
:100B6C00F1000A128A11A9250A128A11831603139D
:100B7C00111471080A128A11D7250A128A11080059
:100B8C00F2007208831203138500091089100915ED
:100B9C000A128A11FD250A128A11831203130911F4
:100BAC000800F0000A128A11A9250A128A1170088D
:100BBC008312031393008C1DE42DE52DE12D8C1174
:100BCC0083160313110808008316031385010610FE
:100BDC0086140611FF3088008312031388018316D4
:100BEC000313890183160317880189010800F0019A
:100BFC00F1010130F0070318F10A0030F107710818
:100C0C00803AFF0080307F02031D0E2E32307002BE
:100C1C00031C112E122EFF2D0800F200292E831218
:100C2C000313901210123F2E8312031390121016FE
:100C3C003F2E83120313901610123F2E83120313B0
:100C4C00901610163F2E7208F000F1017108003A50
:100C5C000319312E3F2E7008003A0319152E013A54
:100C6C0003191A2E033A03191F2E013A0319242EC5
:100C7C003F2E0800283083120313940083160313AD
:100C8C009101831203132008A4002108A500220857
:100C9C00A6002308A70002300310A40DA50DA60D75
:100CAC00A70DFF3E031D522E2708F3002608F20065
:100CBC002508F1002408F0000030F7003D30F60064
:100CCC000930F5000030F4000A128A111B270A12B1
:100CDC008A117008FF3E8316031393009401871545
:100CEC00071608000A128A11EA250A128A11013025
:100CFC000A128A1181270A128A110A128A118E2568
:100D0C000A128A1101300A128A1113260A128A1148
:100D1C0000300A128A119D250A128A1100308312A2
:100D2C000313A3000130A2008630A100A030A00064
:100D3C000A128A1140260A128A110A128A11C52631
:100D4C000A128A1150300A128A11B6250A128A1117
:100D5C00D1300A128A11D7250A128A110A128A1165
:100D6C0094250A128A11C73083120313A800BE2ED1
:100D7C00A80BBD2EC12EA82E0A128A1100281A30DB
:100D8C00F400F830F300F30BC92EF40BC92E00005D
:100D9C0030300A128A11C6250A128A110730F40063
:100DAC007D30F300F30BD82EF40BD82E30300A1212
:100DBC008A11C6250A128A11C730F300E52EF30BEF
:100DCC00E42EE82EE92E30300A128A11C6250A12BA
:100DDC008A11C730F300F22EF30BF12EF52EF62EFE
:100DEC0038300A128A11C6250A128A1110300A12DA
:100DFC008A11C6250A128A1101300A128A11C625D7
:100E0C000A128A1106300A128A11C6250A128A1190
:100E1C000C300A128A11C6250A128A1180300A1265
:100E2C008A11C6250A128A1108000030FC00003015
:100E3C00FB000030FA000030F900730872047104F2
:100E4C00700403192A2F2B2F782FFD01FD0A3B2F3D
:100E5C000130F8000310F00DF10DF20DF30DF80B4D
:100E6C00302F0130F8007808FD07F31F3E2F3F2F7D
:100E7C002E2F0130F8000310F90DFA0DFB0DFC0DAF
:100E8C00F80B412F73087702031D562F7208760258
:100E9C00031D562F71087502031D562F700874021E
:100EAC00031C592F5A2F692F7008F4027108031C68
:100EBC00710FF5027208031C720FF6027308031C03
:100ECC00730FF702791401300310F30CF20CF10CD0
:100EDC00F00CFF3E031D6A2F0130FD02031D772F1E
:100EEC00782F3F2F7C08F3007B08F2007A08F10082
:100EFC007908F0000800F200D32F831603130F17A4
:100F0C008F160F168F110F158F100F14F52F8316C8
:100F1C0003130F178F160F128F110F158F100F143D
:100F2C00F52F831603130F178F120F168F110F1532
:100F3C008F100F14F52F831603130F178F120F1228
:100F4C008F110F158F100F14F52F831603130F131A
:100F5C008F160F168F110F158F100F14F52F831678
:100F6C0003130F138F160F128F110F158F100F14F1
:100F7C00F52F831603130F138F120F168F110F15E6
:100F8C008F100F14F52F831603130F138F120F12DC
:100F9C008F110F118F140F14F52F7208F000F1013F
:100FAC007108003A0319DB2FF52F7008003A03196A
:100FBC00832F013A03198D2F033A0319972F013A06
:100FCC000319A12F073A0319AB2F013A0319B52FB7
:100FDC00033A0319BF2F013A0319C92FF52F080043
:100FEC0083120313A901AA01AB01AC0183010A12FC
:040FFC008A11782EB0
:04400E00D4E0FFFFFC
:00000001FF
