:020000040000FA
:100000000A128A110C280134FE00030EF0000A08BF
:10001000F1000A128A158A2E0A128A110F280A1272
:100020008A1103200A128A11FB00831357308400BF
:100030006E300A128A1591260A128A1183010A1259
:100040008A1122280A128A1512270A128A110130EF
:100050000A128A11C3250A128A110A128A158426E5
:100060000A128A1101300A128A15D3270A128A113C
:1000700000300A128A15B6260A128A110A128A1547
:1000800099260A128A1101300A128A155D270A126E
:100090008A1109300A128A1196240A128A11003034
:1000A0000A128A153C270A128A11003083120313A0
:1000B000A8000130A7008630A600A030A5000A12D3
:1000C0008A1176270A128A110A128A112F250A121A
:1000D0008A110A128A11A0260A128A1183120313A6
:1000E0009F187328742875289F141E08B4003408BC
:1000F000EC0011300A128A15DF260A128A1100302C
:10010000F200F3000A128A11AE270A128A1172084D
:1001100083120313B4003408ED000A128A15A226D4
:100120000A128A110D3083120313B500FB30B4009C
:10013000B40B9828B50B982841300A128A15DF268F
:100140000A128A110030F200F3000A128A11AE2757
:100150000A128A11720883120313B4003408EB00E8
:100160000A128A15A2260A128A110D30831203136D
:10017000B500FB30B400B40BBB28B50BBB28831211
:1001800003136B08880005306C020318C828C928BF
:10019000CB280616D22807306C02031CD028D128A1
:1001A000D2280612D0300A128A15DF260A128A11C6
:1001B0003D300A128A15AB260A128A110A128A15D4
:1001C000A2260A128A11D1300A128A15DF260A12D3
:1001D0008A110030F200F3000A128A11AE270A12C7
:1001E0008A11720883120313B4003408D5000A126E
:1001F0008A15A2260A128A11D0300A128A15DF2621
:100200000A128A1143300A128A15AB260A128A1181
:100210000A128A15A2260A128A11D1300A128A15E8
:10022000DF260A128A110030F200F3000A128A1146
:10023000AE270A128A11720883120313B40034081D
:10024000D6000A128A15A2260A128A1183120313F3
:100250008F018E010614023083120313B400B40B15
:100260002F290000831203130610861C3829392910
:100270003529101486183D293E293A2910100F08F7
:10028000EA000E08E9001D30F2000030F3006A08B1
:10029000F5006908F4000A128A11F6260A128A117A
:1002A000730883120313EA007208E9006908013E2B
:1002B000E9006A080318013E003EEA0000306A02C5
:1002C0000930031969020318662967299229003049
:1002D0006A02073003196902031C6F2970299229E9
:1002E0000615023083120313B6008630B50098302D
:1002F000B400B40B7929B50B7929B60B7929000024
:10030000831203130611023083120313B6008630E2
:10031000B5009830B400B40B8B29B50B8B29B60B04
:100320008B2900000030831203136A02073003197F
:10033000690203189C299D29C32900306A020530EF
:1003400003196902031CA529A629C3290615023031
:1003500083120313B6008630B5009830B400B40B96
:10036000AF29B50BAF29B60BAF29000083120313D9
:100370000611823083120313B500DD30B400B40BD4
:10038000BF29B50BBF290030831203136A02053061
:10039000031969020318CD29CE29CF290615133078
:1003A000B4003408A5006A08A7006908A6004B300D
:1003B0000A128A113B230A128A11F50101300A122E
:1003C0008A11E4270A128A110A128A1526270A12AC
:1003D0008A111730F6008030F7000A128A15A72715
:1003E0000A128A110A128A1526270A128A11023065
:1003F00083120313B4003408F50001300A128A1185
:10040000E4270A128A110A128A1526270A128A116B
:100410004B30F6000030F7000A128A15A7270A129F
:100420008A110A128A1526270A128A1105308312A8
:100430000313B4003408F50001300A128A11E427CE
:100440000A128A110A128A1526270A128A111D30E9
:10045000F6008030F7000A128A15A7270A128A11BF
:100460000A128A1526270A128A11133083120313DF
:10047000B4003408A5006D08B500B6013508A60023
:100480003608A70050300A128A113B230A128A113B
:10049000083083120313B4003408F50001300A1247
:1004A0008A11E4270A128A110A128A1526270A12CB
:1004B0008A111A30F6008030F7000A128A15A72731
:1004C0000A128A110A128A1526270A128A110A307C
:1004D00083120313B4003408F50001300A128A11A4
:1004E000E4270A128A110A128A1526270A128A118B
:1004F0005030F6000030F7000A128A15A7270A12BA
:100500008A110A128A1526270A128A1113308312B9
:100510000313B4003408A5005608B500B601350829
:10052000A6003608A70037300A128A113B230A12A8
:100530008A11F50102300A128A11E4270A128A117F
:100540000A128A1526270A128A110B30F60080300B
:10055000F7000A128A15A7270A128A110A128A15A9
:1005600026270A128A11033083120313B4003408B9
:10057000F50002300A128A11E4270A128A110A12BF
:100580008A1526270A128A113730F6000030F70044
:100590000A128A15A7270A128A110230831203133E
:1005A000B6000430B500B930B400B40BD52AB50B91
:1005B000D52AB60BD52ADC2A133083120313B400D4
:1005C0003408A5005508B500B6013508A600360860
:1005D000A70041300A128A113B230A128A110830FF
:1005E00083120313B4003408F50002300A128A1192
:1005F000E4270A128A110A128A1526270A128A117A
:100600000F30F6008030F7000A128A15A7270A1269
:100610008A110A128A1526270A128A110B308312B0
:100620000313B4003408F50002300A128A11E427DB
:100630000A128A110A128A1526270A128A114130D3
:10064000F6000030F7000A128A15A7270A128A114D
:10065000023083120313B6000430B500B930B40081
:10066000B40B302BB50B302BB60B302B372B6E2841
:100670000A128A110C2883120313B2002630A80034
:100680002808AC007F2C253033060319482B492B52
:10069000552B3308A80032088400280883138000F3
:1006A0000130A8002808B2077F2CB001B101AB01CE
:1006B000250884000A128A150A200A128A110A12D1
:1006C0008A1500270A128A11031C672B682BAE2B90
:1006D00083120313B001B1010A30F2000030F300BD
:1006E000831203133108F5003008F4000A128A154A
:1006F00082270A128A11730883120313B100720849
:10070000B000250884000A128A150A200A128A11EC
:10071000D03EA800FF3003180030A9002808B00719
:100720000318B10A2908B1070130A8002808A50755
:10073000250884000A128A150A200A128A110A1250
:100740008A1500270A128A110318A72BA82B6C2BD5
:10075000AE2BC030A8002808AB04CA2B013083128E
:100760000313A507FF30250784000A128A150A2003
:100770000A128A11B300A800A9012908003A031936
:10078000C22B7F2C2808003A0319912C753A0319C3
:10079000A92B7F2C2C08840083130008AD00840A49
:1007A0000008AE000230A8002808AC07B301B30A65
:1007B0003308A8002807013E84000A128A150A207F
:1007C0000A128A11A9000A128A150A200A128A112D
:1007D000AA002A082E02031DEF2B29082D02031858
:1007E000F22BF32BF42BFE2B0130A8002808B307C3
:1007F00005303306031DFD2BFE2BD82B3108803A24
:10080000803C031D052C300833020318082C092CEA
:10081000152C831203133308A800A9012808B0027D
:100820002908031CB103B102192C83120313B00170
:10083000B1013008310403191E2C1F2C362C203036
:10084000A800320884002808831380000130A80023
:100850002808B207FF30B0070318B10AFF30B1070C
:1008600030083104031D352C362C1F2C3308A8000A
:100870002808AF00762C0A30A0000030A1002F0815
:10088000A8002807013E84000A128A150A200A12CD
:100890008A11F2000A128A150A200A128A11F3003C
:1008A0002E08F5002D08F4000A128A11F6260A1205
:1008B0008A11730883120313A3007208A2000A129C
:1008C0008A113A270A128A11831203132008303E34
:1008D000A9002908B3003308A800320884002808BA
:1008E000831380000130A8002808B207FF30A80059
:1008F0002808AF072F0A031D7E2C7F2C3B2C0130CC
:10090000A507FF30250784000A128A150A200A125B
:100910008A11A8002808B3003308031D902C912CDD
:10092000432B32088400831380010800F400FA2C62
:10093000831203139F121F129F111F112E2D83125A
:1009400003139F121F129F111F152E2D83120313C5
:100950009F121F129F151F112E2D831203139F121A
:100960001F129F151F152E2D831203139F121F1682
:100970009F111F112E2D831203139F121F169F11FB
:100980001F152E2D831203139F121F169F151F1163
:100990002E2D831203139F121F169F151F152E2D28
:1009A000831203139F161F129F111F112E2D8312E6
:1009B00003139F161F129F111F152E2D8312031351
:1009C0009F161F129F151F112E2D831203139F16A2
:1009D0001F129F151F152E2D831203139F161F160E
:1009E0009F111F112E2D831203139F161F169F1187
:1009F0001F152E2D7408F200F3017308003A031935
:100A0000022D2E2D7208003A0319982C013A031971
:100A10009F2C033A0319A62C013A0319AD2C073A6F
:100A20000319B42C013A0319BB2C033A0319C22C45
:100A3000013A0319C92C0F3A0319D02C013A0319B2
:100A4000D72C033A0319DE2C013A0319E52C073A97
:100A50000319EC2C013A0319F32C2E2D08008230D7
:100A6000F500DD30F400F40B332DF50B332D382D6C
:100A7000D0300A128A15DF260A128A1119300A129A
:100A80008A15AB260A128A1107300A128A15AB267C
:100A90000A128A110A128A15A2260A128A11D03065
:100AA0000A128A15DF260A128A116B300A128A1579
:100AB000AB260A128A1100300A128A15AB260A12D6
:100AC0008A110A128A15A2260A128A11D0300A1235
:100AD0008A15DF260A128A111A300A128A15AB26E5
:100AE0000A128A1100300A128A15AB260A128A11DC
:100AF0000A128A15A2260A128A11D0300A128A1501
:100B0000DF260A128A111C300A128A15AB260A1235
:100B10008A1100300A128A15AB260A128A110A12AB
:100B20008A15A2260A128A11D0300A128A15DF26E7
:100B30000A128A111B300A128A15AB260A128A1170
:100B400012300A128A15AB260A128A110A128A1565
:100B5000A2260A128A11D0300A128A15DF260A123A
:100B60008A1138300A128A15AB260A128A1101300E
:100B70000A128A15AB260A128A110A128A15A226AF
:100B80000A128A110800F400152E831603130F179A
:100B90008F160F168F110F158F100F14372E831607
:100BA00003130F178F160F128F110F158F100F14BD
:100BB000372E831603130F178F120F168F110F1571
:100BC0008F100F14372E831603130F178F120F1267
:100BD0008F110F158F100F14372E831603130F1359
:100BE0008F160F168F110F158F100F14372E8316B7
:100BF00003130F138F160F128F110F158F100F1471
:100C0000372E831603130F138F120F168F110F1524
:100C10008F100F14372E831603130F138F120F121A
:100C20008F110F118F140F14372E7408F200F30177
:100C30007308003A03191D2E372E7208003A031963
:100C4000C52D013A0319CF2D033A0319D92D013AC5
:100C50000319E32D073A0319ED2D013A0319F72D76
:100C6000033A0319012E013A03190B2E372E0800FF
:100C7000003083120313A3000030A2000030A10053
:100C80000030A00075087404730472040319492E1F
:100C90004A2E972EA401A40A5A2E0130FA000310FE
:100CA000F20DF30DF40DF50DFA0B4F2E0130FA0095
:100CB0007A08A407F51F5D2E5E2E4D2E0130FA0036
:100CC0000310A00DA10DA20DA30DFA0B602E750847
:100CD0007902031D752E74087802031D752E7308A2
:100CE0007702031D752E72087602031C782E792E6A
:100CF000882E7208F6027308031C730FF70274083B
:100D0000031C740FF8027508031C750FF9022014F8
:100D100001300310F50CF40CF30CF20CFF3E031D34
:100D2000892E0130A402031D962E972E5E2E2308D5
:100D3000F5002208F4002108F3002008F200080062
:100D40001A30F600F830F500F50BA42EF60BA42EA1
:100D5000000030300A128A15EF260A128A11073075
:100D6000F6007D30F500F50BB32EF60BB32E3030C8
:100D70000A128A15EF260A128A11C730F500C02E12
:100D8000F50BBF2EC32EC42E30300A128A15EF2663
:100D90000A128A11C730F500CD2EF50BCC2ED02EBD
:100DA000D12E38300A128A15EF260A128A11103015
:100DB0000A128A15EF260A128A1101300A128A15C0
:100DC000EF260A128A1106300A128A15EF260A1235
:100DD0008A110C300A128A15EF260A128A11803005
:100DE0000A128A15EF260A128A110800F701F80183
:100DF000720873040319FD2EFE2E352FF901F90A2E
:100E00000C2F01300310F20DF30DFF3E031D022FD6
:100E10000130F6007608F907F31F0F2F102F012F6E
:100E200001300310F70DF80DFF3E031D112F73085D
:100E30007502031D1D2F72087402031C202F212F21
:100E4000282F7208F4027308031CF503F5027714C7
:100E500001300310F30CF20CFF3E031D292F01306B
:100E6000F902031D342F352F102F7808F30077086F
:100E7000F200080083120313200821040319412FF4
:100E8000422F712FA401A40A502F01300310A00D8E
:100E9000A10DFF3E031D462F0130FA007A08A4077A
:100EA000A11F532F542F452F21082302031D5A2F12
:100EB00020082202031C5D2F5E2F642F2008A2024F
:100EC0002108031CA303A30201300310A10CA00CF2
:100ED000FF3E031D652F0130A402031D702F712FEB
:100EE000542F2308A1002208A000080028308312F4
:100EF000031394008316031391018312031325082F
:100F0000A9002608AA002708AB002808AC00023078
:100F10000310A90DAA0DAB0DAC0DFF3E031D882FCC
:100F20002C08F5002B08F4002A08F3002908F20029
:100F30000030F9003D30F8000930F7000030F600CD
:100F40000A128A1138260A128A117208FF3E831685
:100F50000313930094018715071608000A128A15D7
:100F6000C2260A128A118316031391150A128A15D2
:100F7000C2260A128A11831203131308F400F50122
:100F80007408F6007508F7000A128A15C2260A12BC
:100F90008A1172087304031DCE2FCF2FD32F83160F
:100FA00003139116DC2F72037304031DD82FD92F5E
:100FB000DC2F83160313911283160313111677087F
:100FC000F3007608F2000800F6007603031DE92F0F
:100FD000EA2FF22F7508803E0A128A15EF260A12B0
:100FE0008A11FF2F02307606031DF72FF82FFF2FEF
:100FF0007508C03E0A128A15EF260A128A110800E7
:10100000FF1B0A2883137F1883170008840A03191B
:10101000FF0A080008308A000408840A82070034A6
:10102000013400340A34003464340034E8340334C6
:1010300010342734473478343A3400344134793426
:101040003A340034253433347534003464343A345B
:0E105000003466343A34003463346D340034B6
:101D080083120313901190101014080071088A00B0
:101D1800700E8300FE0E7E0E090064008001840AA6
:101D28000406031900340406922E831203131F14A9
:101D3800831603139F139F121F1208000A128A1595
:101D4800C2260A128A158316031311150800F20019
:101D58000A128A15C2260A128A15720883120313F8
:101D680093000800F200720C83160313031C0C1076
:101D780003180C14831203130C10080083160313A2
:101D88001419C72EC82EC22E11081F39031DCD2EB7
:101D9800CE2EC22E0800740883120313850009147E
:101DA800891009150A128A1526270A128A1583121C
:101DB800031309110800F3000A128A15C2260A1231
:101DC8008A1583160313111473080A128A15AB2691
:101DD8000A128A150800F400740883120313850098
:101DE8000910891009150A128A1526270A128A1558
:101DF8008312031309110800F300F2013A30730249
:101E08000318072F082F102F30307302031C0D2FD3
:101E18000E2F102FF201F20A720C0800831603131A
:101E2800850106108614061186150612880183128C
:101E38000313880183160313890183160317880186
:101E480089010800F201F3010130F2070318F30ACF
:101E58000030F3077308803AFF0080307F02031DCB
:101E6800372F32307202031C3A2F3B2F282F0800DD
:101E7800F4004C2F831603130C13831203130C1353
:101E88005C2F831603130C17831203130C135C2F98
:101E98007408F200F3017308003A0319542F5C2FF9
:101EA8007208003A03193E2F013A0319452F5C2F97
:101EB8000800F4006E2F831203139F131F13812F42
:101EC800831203139F131F17812F831203139F1766
:101ED8001F13812F7408F200F3017308003A0319E5
:101EE800762F812F7208003A03195F2F013A0319E0
:101EF800642F023A0319692F812F0800F601F701B0
:101F0800721C872F882F8E2F7408F6070318F70A7C
:101F18007508F70701300310F40DF50DFF3E031D9A
:101F28008F2F01300310F30CF20CFF3E031D962F88
:101F380072087304031DA12FA22F842F7708F300C2
:101F48007608F2000800C22F7708FF0076088400A0
:101F58000A128A1500200A128A15F800F901780871
:101F6800F4007908F5000A128A15CF260A128A1594
:101F78000130F6070318F70A0030F70777088312CD
:101F88000313FF00760884000A128A1500200A123B
:101F98008A15003A031DD12FD22FA82F0800F4006C
:101FA800E92F8312031390121012FF2F83120313C9
:101FB80090121016FF2F8312031390161012FF2F82
:101FC8008312031390161016FF2F7408F200F30102
:101FD8007308003A0319F12FFF2F7208003A03190A
:101FE800D52F013A0319DA2F033A0319DF2F013AE3
:081FF8000319E42FFF2F08007C
:04400E00D4E0FFFFFC
:00000001FF
