:020000040000FA
:100000000A128A11F62FFF1B0D2883137F188317FE
:100010000008840A0319FF0A080000308A00040857
:10002000840A82070034013400340A340034643412
:100030000034E83403341034273425343334753431
:10004000003464343A34003466343A34003463346F
:040050006D340034D7
:10033A008312031390119010101408000A128A11E4
:10034A00D7210A128A1183160313111408000A12FC
:10035A008A11D7210A128A1183160313111508006C
:10036A000A128A11D7210A128A11700883120313FA
:10037A0093000800831603138501061086140611DC
:10038A00890183160317880189010800F000700C9F
:10039A0083160313031C0C1003180C148312031383
:1003AA000C100800831603131419DC29DD29D72938
:1003BA0011081F39031DE229E329D7290800720809
:1003CA008312031385000914891009150A128A1168
:1003DA0017220A128A118312031309110800F20064
:1003EA0072088312031385000910891009150A126D
:1003FA008A1117220A128A1183120313091108009B
:10040A00F100F0013A30710203180C2A0D2A152A5C
:10041A0030307102031C122A132A152AF001F00A3D
:10042A00700C0800F001F1010130F0070318F10A1D
:10043A000030F1077108803AFF0080307F02031D07
:10044A00282A32307002031C2B2A2C2A192A080067
:10045A00F4007403031D322A332A3B2A7308803EB0
:10046A000A128A11F4210A128A11482A02307406E1
:10047A00031D402A412A482A7308C03E0A128A11DB
:10048A00F4210A128A110800F401F501701C4E2A9F
:10049A004F2A552A7208F4070318F50A7308F50754
:1004AA0001300310F20DF30DFF3E031D562A0130F1
:1004BA000310F10CF00CFF3E031D5D2A7008710455
:1004CA00031D682A692A4B2A7508F1007408F0008E
:1004DA000800892A7508FF00740884000A128A1124
:1004EA0003200A128A11F600F7017608F20077084B
:1004FA00F3000A128A11E4210A128A110130F40760
:10050A000318F50A0030F507750883120313FF0074
:10051A00740884000A128A1103200A128A11003A06
:10052A00031D982A992A6F2A0800F200B02A83121A
:10053A00031390121012C62A831203139012101674
:10054A00C62A8312031390161012C62A83120313A3
:10055A0090161016C62A7208F000F1017108003AC6
:10056A000319B82AC62A7008003A03199C2A013AC4
:10057A000319A12A033A0319A62A013A0319AB2A35
:10058A00C62A08000A128A11D7210A128A1183166A
:10059A00031391150A128A11D7210A128A1183129A
:1005AA0003131308F200F3017208F4007308F5004C
:1005BA000A128A11D7210A128A1170087104031DBE
:1005CA00E72AE82AEC2A831603139116F52A700300
:1005DA007104031DF12AF22AF52A831603139112D4
:1005EA008316031311167508F1007408F000080049
:1005FA002830831203139400831603139101831284
:10060A0003132008A4002108A5002208A600230835
:10061A00A70002300310A40DA50DA60DA70DFF3EDD
:10062A00031D0F2B2708F3002608F2002508F10006
:10063A002408F0000030F7003D30F6000930F500DC
:10064A000030F4000A128A1109240A128A11700869
:10065A00FF3E8316031393009401871507160800BB
:10066A007808790403193A2B3B2B6A2BFD01FD0A02
:10067A00492B01300310F80DF90DFF3E031D3F2BE6
:10068A000130FC007C08FD07F91F4C2B4D2B3E2B3B
:10069A0079087B02031D532B78087A02031C562B18
:1006AA00572B5D2B7808FA027908031CFB03FB021F
:1006BA0001300310F90CF80CFF3E031D5E2B0130CC
:1006CA00FD02031D692B6A2B4D2B7B08F9007A0862
:1006DA00F8000800F501F601700871040319762B79
:1006EA00772BAE2BF701F70A852B01300310F00D9B
:1006FA00F10DFF3E031D7B2B0130F4007408F70750
:10070A00F11F882B892B7A2B01300310F50DF60D7A
:10071A00FF3E031D8A2B71087302031D962B700876
:10072A007202031C992B9A2BA12B7008F2027108F2
:10073A00031CF303F302751401300310F10CF00CDF
:10074A00FF3E031DA22B0130F702031DAD2BAE2B7A
:10075A00892B7608F1007508F00008001A30F400B9
:10076A00F830F300F30BB72BF40BB72B0000303043
:10077A000A128A11F4210A128A110730F4007D3014
:10078A00F300F30BC62BF40BC62B30300A128A1176
:10079A00F4210A128A11C730F300D32BF30BD22BA0
:1007AA00D62BD72B30300A128A11F4210A128A1159
:1007BA00C730F300E02BF30BDF2BE32BE42B3830AD
:1007CA000A128A11F4210A128A1110300A128A11A5
:1007DA00F4210A128A1101300A128A11F4210A122A
:1007EA008A1106300A128A11F4210A128A110C306F
:1007FA000A128A11F4210A128A1180300A128A1105
:10080A00F4210A128A1108000030FC000030FB00B3
:10081A000030FA000030F9007308720471047004A1
:10082A000319182C192C662CFD01FD0A292C0130FC
:10083A00F8000310F00DF10DF20DF30DF80B1E2C5C
:10084A000130F8007808FD07F31F2C2C2D2C1C2CE6
:10085A000130F8000310F90DFA0DFB0DFC0DF80B31
:10086A002F2C73087702031D442C72087602031D8D
:10087A00442C71087502031D442C70087402031C71
:10088A00472C482C572C7008F4027108031C710F6E
:10089A00F5027208031C720FF6027308031C730F29
:1008AA00F702791401300310F30CF20CF10CF00C7E
:1008BA00FF3E031D582C0130FD02031D652C662CDA
:1008CA002D2C7C08F3007B08F2007A08F1007908E5
:1008DA00F0000800F200C12C831603130F178F16BD
:1008EA000F168F110F158F100F14E32C8316031395
:1008FA000F178F160F128F110F158F100F14E32C6D
:10090A00831603130F178F120F168F110F158F10DF
:10091A000F14E32C831603130F178F120F128F1164
:10092A000F158F100F14E32C831603130F138F1652
:10093A000F168F110F158F100F14E32C8316031344
:10094A000F138F160F128F110F158F100F14E32C20
:10095A00831603130F138F120F168F110F158F1093
:10096A000F14E32C831603130F138F120F128F1118
:10097A000F118F140F14E32C7208F000F1017108A3
:10098A00003A0319C92CE32C7008003A0319712C98
:10099A00013A03197B2C033A0319852C013A0319EE
:1009AA008F2C073A0319992C013A0319A32C033AFD
:1009BA000319AD2C013A0319B72CE32C0800831252
:1009CA000313AD002130A3002308A700262E2530EB
:1009DA002E060319F12CF22CFE2C2E08A3002D084A
:1009EA0084002308831380000130A3002308AD0785
:1009FA00262EAB01AC01A601200884000A128A1136
:100A0A000D200A128A110A128A1105220A128A1163
:100A1A00031C102D112D572D83120313AB01AC01AA
:100A2A000A30F0000030F100831203132C08F3009F
:100A3A002B08F2000A128A1149220A128A11710835
:100A4A0083120313AC007008AB00200884000A125A
:100A5A008A110D200A128A11D03EA300FF30031812
:100A6A000030A4002308AB070318AC0A2408AC071B
:100A7A000130A3002308A007200884000A128A1163
:100A8A000D200A128A110A128A1105220A128A11E3
:100A9A000318502D512D152D572DC030A3002308B2
:100AAA00A604732D013083120313A007FF30200719
:100ABA0084000A128A110D200A128A11AE00A300BC
:100ACA00A4012408003A03196B2D262E2308003AA4
:100ADA000319382E753A0319522D262E2708840039
:100AEA0083130008A800840A0008A9000230A300A2
:100AFA002308A707AE01AE0A2E08A3002307013E6A
:100B0A0084000A128A110D200A128A11A4000A12FC
:100B1A008A110D200A128A11A50025082902031D2F
:100B2A00982D2408280203189B2D9C2D9D2DA72D56
:100B3A000130A3002308AE0705302E06031DA62D9B
:100B4A00A72D812D2C08803A803C031DAE2D2B0841
:100B5A002E020318B12DB22DBE2D831203132E08B7
:100B6A00A300A4012308AB022408031CAC03AC02B3
:100B7A00C22D83120313AB01AC012B082C040319F9
:100B8A00C72DC82DDF2D2030A3002D08840023088F
:100B9A00831380000130A3002308AD07FF30AB07A1
:100BAA000318AC0AFF30AC072B082C04031DDE2DFA
:100BBA00DF2DC82D2E08A3002308AA001D2E0A30F7
:100BCA00F8000030F9002A08A3002307013E840038
:100BDA000A128A110D200A128A11F0000A128A11C9
:100BEA000D200A128A11F1002908F3002808F200E0
:100BFA000A128A116F230A128A117108FB007008FF
:100C0A00FA000A128A1135230A128A117808303E2C
:100C1A0083120313A4002408AE002E08A3002D0893
:100C2A0084002308831380000130A3002308AD0742
:100C3A00FF30A3002308AA072A0A031D252E262E01
:100C4A00E42D0130A007FF30200784000A128A1120
:100C5A000D200A128A11A3002308AE002E08031DD4
:100C6A00372E382EEC2C2D088400831380010800BF
:100C7A000A128A11BF210A128A1101300A128A1134
:100C8A006F240A128A110A128A119D210A128A11E4
:100C9A0001300A128A119A220A128A1100300A12A3
:100CAA008A11CB210A128A11003083120313A3007E
:100CBA000130A2008630A100A030A0000A128A11D9
:100CCA00FD220A128A110A128A11B3230A128A1100
:100CDA000A128A11A3210A128A111130F000003077
:100CEA00F1000A128A11B5210A128A110030F000A5
:100CFA00F1000A128A11C7220A128A117108831294
:100D0A000313BD007008BC000A128A11AC210A1232
:100D1A008A11C73083120313AF00932EAF0B922EA2
:100D2A00962E831203138F018E010614023083124A
:100D3A000313AF00AF0B9F2E00008312031306109C
:100D4A00861CA82EA92EA52E10148618AD2EAE2EFE
:100D5A00AA2E10100F08BF000E08BE001D30F000AA
:100D6A000030F1003F08F3003E08F2000A128A112F
:100D7A006F230A128A11710883120313BF007008C5
:100D8A00BE003E08013EBE003F080318013E003E79
:100D9A00BF0000303F020B3003193E020318D62E63
:100DAA00D72E012F00303F02093003193E02031CDF
:100DBA00DF2EE02E012F0615023083120313B10035
:100DCA008630B0009830AF00AF0BE92EB00BE92E99
:100DDA00B10BE92E000083120313061104308312AB
:100DEA000313B1000C30B0003330AF00AF0BFB2E51
:100DFA00B00BFB2EB10BFB2E0030831203133F0204
:100E0A00093003193E0203180B2F0C2F372F00301D
:100E1A003F02063003193E02031C142F152F372FE9
:100E2A000615023083120313B1008630B0009830E1
:100E3A00AF00AF0B1E2FB00B1E2FB10B1E2F0000E1
:100E4A00831203130611023083120313B100863092
:100E5A00B0009830AF00AF0B302FB00B302FB10B72
:100E6A00302F00000030831203133F0206300319AB
:100E7A003E020318412F422F432F06150B30AF00B5
:100E8A002F08A0003F08A2003E08A10032300A1233
:100E9A008A11E4240A128A11F30101300A128A1112
:100EAA002D220A128A110A128A1117220A128A118B
:100EBA000F30F4008030F5000A128A116E220A12ED
:100ECA008A110A128A1117220A128A11023083120F
:100EDA000313AF002F08F30001300A128A112D22E2
:100EEA000A128A110A128A1117220A128A11323038
:100EFA00F4000030F5000A128A116E220A128A11D1
:100F0A000A128A1117220A128A1105308312031350
:100F1A00AF002F08F30001300A128A112D220A129B
:100F2A008A110A128A1117220A128A111530F4003C
:100F3A008030F5000A128A116E220A128A110B30C9
:100F4A0083120313AF002F08A0003D08A2003C083B
:100F5A00A10037300A128A11E4240A128A110830D1
:100F6A0083120313AF002F08F30001300A128A110B
:100F7A002D220A128A110A128A1117220A128A11BA
:100F8A001230F4008030F5000A128A116E220A1219
:100F9A008A110A128A1117220A128A110A30831236
:100FAA000313AF002F08F30001300A128A112D2211
:100FBA000A128A110A128A1117220A128A11373062
:100FCA00F4000030F5000A128A116E220A128A1100
:100FDA000A128A1117220A128A116D2E0A128A110E
:100FEA00002883120313BC01BD01BE01BF018301A6
:060FFA000A128A113D2ECF
:04400E00D4E0FFFFFC
:00000001FF
