:020000040000FA
:100000000A128A110C280134FE00030EF0000A08BF
:10001000F1000A128A15802E0A128A110F280A127C
:100020008A1103200A128A11FB00831357308400BF
:100030006D300A128A1587260A128A1183010A1264
:100040008A1122280A128A15F6260A128A1101300C
:100050000A128A119E250A128A110A128A157A2614
:100060000A128A1101300A128A15D3270A128A113C
:1000700000300A128A15AC260A128A110A128A1551
:100080008F260A128A1101300A128A155D270A1278
:100090008A1109300A128A1171240A128A11003059
:1000A0000A128A153C270A128A11003083120313A0
:1000B000A8000130A7008630A600A030A5000A12D3
:1000C0008A1151270A128A110A128A110A250A1264
:1000D0008A110A128A117B260A128A1183120313CB
:1000E0009F187328742875289F141E08B4003408BC
:1000F000EB0011300A128A15D5260A128A11003037
:10010000F200F3000A128A1189270A128A11720872
:1001100083120313B4003408EC000A128A159826DF
:100120000A128A110D3083120313B500FB30B4009C
:10013000B40B9828B50B98280530831203136B0273
:100140000318A328A428A6280616AD2807306B029A
:10015000031CAB28AC28AD280612D0300A128A1531
:10016000D5260A128A113D300A128A15A1260A12D2
:100170008A110A128A1598260A128A11D1300A1297
:100180008A15D5260A128A110030F200F3000A12ED
:100190008A1189270A128A11720883120313B40084
:1001A0003408D5000A128A1598260A128A11D0300E
:1001B0000A128A15D5260A128A1143300A128A15A4
:1001C000A1260A128A110A128A1598260A128A1181
:1001D000D1300A128A15D5260A128A110030F2008F
:1001E000F3000A128A1189270A128A1172088312EF
:1001F0000313B4003408D6000A128A1598260A128E
:100200008A11831203138F018E01061402308312A8
:100210000313B400B40B0A29000083120313061061
:10022000861C132914291029101486181829192935
:10023000152910100F08EA000E08E9001D30F20021
:100240000030F3006A08F5006908F4000A128A1108
:10025000D1260A128A11730883120313EA00720866
:10026000E9006908013EE9006A080318013E003E02
:10027000EA0000306A0209300319690203184129B3
:1002800042296D2900306A02073003196902031CF4
:100290004A294B296D290615023083120313B60033
:1002A0008630B5009830B400B40B5429B50B5429EE
:1002B000B60B542900008312031306110230831277
:1002C0000313B6008630B5009830B400B40B66292D
:1002D000B50B6629B60B66290000003083120313A4
:1002E0006A020730031969020318772978299E29C1
:1002F00000306A02053003196902031C8029812934
:100300009E290615023083120313B6008630B5000D
:100310009830B400B40B8A29B50B8A29B60B8A2908
:100320000000831203130611823083120313B500F9
:10033000DD30B400B40B9A29B50B9A290030831232
:1003400003136A020530031969020318A829A929B1
:10035000AA2906151330B4003408A5006A08A700BE
:100360006908A6004B300A128A1116230A128A1154
:10037000F50101300A128A1520270A128A110A1281
:100380008A150A270A128A111730F6008030F70002
:100390000A128A15A7270A128A110A128A150A2731
:1003A0000A128A11023083120313B4003408F500D4
:1003B00001300A128A1520270A128A110A128A1598
:1003C0000A270A128A114B30F6000030F7000A1291
:1003D0008A15A7270A128A110A128A150A270A12F1
:1003E0008A11053083120313B4003408F50001307C
:1003F0000A128A1520270A128A110A128A150A2758
:100400000A128A111D30F6008030F7000A128A1590
:10041000A7270A128A110A128A150A270A128A11B4
:10042000133083120313B4003408A5006C08B50020
:10043000B6013508A6003608A70050300A128A1106
:1004400016230A128A11083083120313B4003408E9
:10045000F50001300A128A1520270A128A110A12A1
:100460008A150A270A128A111A30F6008030F7001E
:100470000A128A15A7270A128A110A128A150A2750
:100480000A128A110A3083120313B4003408F500EB
:1004900001300A128A1520270A128A110A128A15B7
:1004A0000A270A128A115030F6000030F7000A12AB
:1004B0008A15A7270A128A110A128A150A270A1210
:1004C0008A11133083120313B4003408A5005608B0
:1004D000B500B6013508A6003608A70037300A1265
:1004E0008A1116230A128A11F50102300A128A159E
:1004F00020270A128A110A128A150A270A128A115B
:100500000B30F6008030F7000A128A15A7270A126E
:100510008A110A128A150A270A128A1103308312D5
:100520000313B4003408F50002300A128A1520279C
:100530000A128A110A128A150A270A128A113730FA
:10054000F6000030F7000A128A15A7270A128A114E
:10055000023083120313B6000430B500B930B40082
:10056000B40BB02AB50BB02AB60BB02AB72A133099
:1005700083120313B4003408A5005508B500B60172
:100580003508A6003608A70041300A128A11162342
:100590000A128A11083083120313B4003408F500DC
:1005A00002300A128A1520270A128A110A128A15A5
:1005B0000A270A128A110F30F6008030F7000A125B
:1005C0008A15A7270A128A110A128A150A270A12FF
:1005D0008A110B3083120313B4003408F500023083
:1005E0000A128A1520270A128A110A128A150A2766
:1005F0000A128A114130F6000030F7000A128A15FB
:10060000A7270A128A11023083120313B60004309E
:10061000B500B930B400B40B0B2BB50B0B2BB60BDC
:100620000B2B122B6E280A128A110C28831203132B
:10063000B2002630A8002808AC005A2C253033061A
:100640000319232B242B302B3308A80032088400F5
:100650002808831380000130A8002808B2075A2C0C
:10066000B001B101AB01250884000A128A11C92723
:100670000A128A110A128A11EE270A128A11031C21
:10068000422B432B892B83120313B001B1010A3093
:10069000F2000030F300831203133108F500300834
:1006A000F4000A128A1582270A128A11730883122B
:1006B0000313B1007208B000250884000A128A11E1
:1006C000C9270A128A11D03EA800FF300318003053
:1006D000A9002808B0070318B10A2908B10701309A
:1006E000A8002808A507250884000A128A11C9272E
:1006F0000A128A110A128A11EE270A128A110318A5
:10070000822B832B472B892BC030A8002808AB04F1
:10071000A52B013083120313A507FF3025078400A2
:100720000A128A11C9270A128A11B300A800A90166
:100730002908003A03199D2B5A2C2808003A03195E
:100740006C2C753A0319842B5A2C2C0884008313C3
:100750000008AD00840A0008AE000230A800280896
:10076000AC07B301B30A3308A8002807013E840090
:100770000A128A11C9270A128A11A9000A128A11BB
:10078000C9270A128A11AA002A082E02031DCA2BA1
:1007900029082D020318CD2BCE2BCF2BD92B0130BE
:1007A000A8002808B30705303306031DD82BD92B22
:1007B000B32B3108803A803C031DE02B3008330214
:1007C0000318E32BE42BF02B831203133308A80048
:1007D000A9012808B0022908031CB103B102F42BB7
:1007E00083120313B001B101300831040319F92B4E
:1007F000FA2B112C2030A80032088400280883131B
:1008000080000130A8002808B207FF30B0070318A5
:10081000B10AFF30B10730083104031D102C112C30
:10082000FA2B3308A8002808AF00512C0A30A0008A
:100830000030A1002F08A8002807013E84000A12FA
:100840008A11C9270A128A11F2000A128A11C927CD
:100850000A128A11F3002E08F5002D08F4000A127E
:100860008A11D1260A128A11730883120313A30076
:100870007208A2000A128A1115270A128A1183121D
:1008800003132008303EA9002908B3003308A8004C
:10089000320884002808831380000130A80028084B
:1008A000B207FF30A8002808AF072F0A031D592CF4
:1008B0005A2C162C0130A507FF30250784000A1298
:1008C0008A11C9270A128A11A8002808B300330820
:1008D000031D6B2C6C2C1E2B3208840083138001AB
:1008E0000800F400D52C831203139F121F129F11CE
:1008F0001F11092D831203139F121F129F111F1521
:10090000092D831203139F121F129F151F11092D0A
:10091000831203139F121F129F151F15092D831297
:1009200003139F121F169F111F11092D831203130A
:100930009F121F169F111F15092D831203139F125B
:100940001F169F151F11092D831203139F121F16C7
:100950009F151F15092D831203139F161F129F1138
:100960001F11092D831203139F161F129F111F15AC
:10097000092D831203139F161F129F151F11092D96
:10098000831203139F161F129F151F15092D831223
:1009900003139F161F169F111F11092D8312031396
:1009A0009F161F169F111F15092D7408F200F301E1
:1009B0007308003A0319DD2C092D7208003A031957
:1009C000732C013A03197A2C033A0319812C013A4A
:1009D0000319882C073A03198F2C013A0319962C16
:1009E000033A03199D2C013A0319A42C0F3A031959
:1009F000AB2C013A0319B22C033A0319B92C013A72
:100A00000319C02C073A0319C72C013A0319CE2C3D
:100A1000092D08008230F500DD30F400F40B0E2DB6
:100A2000F50B0E2D132DD0300A128A15D5260A1279
:100A30008A1119300A128A15A1260A128A11073062
:100A40000A128A15A1260A128A110A128A159826F4
:100A50000A128A11D0300A128A15D5260A128A1172
:100A60006B300A128A15A1260A128A1100300A1266
:100A70008A15A1260A128A110A128A1598260A12C4
:100A80008A11D0300A128A15D5260A128A111A3014
:100A90000A128A15A1260A128A1100300A128A1532
:100AA000A1260A128A110A128A1598260A128A1198
:100AB000D0300A128A15D5260A128A111C300A1261
:100AC0008A15A1260A128A1100300A128A15A12657
:100AD0000A128A110A128A1598260A128A11D0302F
:100AE0000A128A15D5260A128A111B300A128A1593
:100AF000A1260A128A1112300A128A15A1260A1298
:100B00008A110A128A1598260A128A11D0300A12FE
:100B10008A15D5260A128A1138300A128A15A1269A
:100B20000A128A1101300A128A15A1260A128A11A4
:100B30000A128A1598260A128A110800F400F02D6C
:100B4000831603130F178F160F168F110F158F10A3
:100B50000F14122E831603130F178F160F128F11F7
:100B60000F158F100F14122E831603130F178F12E9
:100B70000F168F110F158F100F14122E83160313DB
:100B80000F178F120F128F110F158F100F14122EB7
:100B9000831603130F138F160F168F110F158F1057
:100BA0000F14122E831603130F138F160F128F11AB
:100BB0000F158F100F14122E831603130F138F129D
:100BC0000F168F110F158F100F14122E831603138B
:100BD0000F138F120F128F110F118F140F14122E6B
:100BE0007408F200F3017308003A0319F82D122E6D
:100BF0007208003A0319A02D013A0319AA2D033AED
:100C00000319B42D013A0319BE2D073A0319C82D53
:100C1000013A0319D22D033A0319DC2D013A0319C5
:100C2000E62D122E0800003083120313A3000030BB
:100C3000A2000030A1000030A00075087404730405
:100C400072040319242E252E722EA401A40A352E17
:100C50000130FA000310F20DF30DF40DF50DFA0B4F
:100C60002A2E0130FA007A08A407F51F382E392EF3
:100C7000282E0130FA000310A00DA10DA20DA30D26
:100C8000FA0B3B2E75087902031D502E740878026A
:100C9000031D502E73087702031D502E7208760232
:100CA000031C532E542E632E7208F6027308031C85
:100CB000730FF7027408031C740FF8027508031C05
:100CC000750FF902201401300310F50CF40CF30C2D
:100CD000F20CFF3E031D642E0130A402031D712E91
:100CE000722E392E2308F5002208F4002108F300A3
:100CF0002008F20008001A30F600F830F500F50B75
:100D00007F2EF60B7F2E000030300A128A15E52662
:100D10000A128A110730F6007D30F500F50B8E2E91
:100D2000F60B8E2E30300A128A15E5260A128A1129
:100D3000C730F5009B2EF50B9A2E9E2E9F2E30303D
:100D40000A128A15E5260A128A11C730F500A82E64
:100D5000F50BA72EAB2EAC2E38300A128A15E526DD
:100D60000A128A1110300A128A15E5260A128A110F
:100D700001300A128A15E5260A128A1106300A1273
:100D80008A15E5260A128A110C300A128A15E52600
:100D90000A128A1180300A128A15E5260A128A116F
:100DA0000800F701F801720873040319D82ED92E30
:100DB000102FF901F90AE72E01300310F20DF30D9F
:100DC000FF3E031DDD2E0130F6007608F907F31F04
:100DD000EA2EEB2EDC2E01300310F70DF80DFF3E4E
:100DE000031DEC2E73087502031DF82E72087402A1
:100DF000031CFB2EFC2E032F7208F4027308031C45
:100E0000F503F502771401300310F30CF20CFF3EEA
:100E1000031D042F0130F902031D0F2F102FEB2E9D
:100E20007808F3007708F200080083120313200803
:100E3000210403191C2F1D2F4C2FA401A40A2B2FB2
:100E400001300310A00DA10DFF3E031D212F013025
:100E5000FA007A08A407A11F2E2F2F2F202F210878
:100E60002302031D352F20082202031C382F392F9F
:100E70003F2F2008A2022108031CA303A302013074
:100E80000310A10CA00CFF3E031D402F0130A40253
:100E9000031D4B2F4C2F2F2F2308A1002208A00049
:100EA0000800283083120313940083160313910162
:100EB000831203132508A9002608AA002708AB00FF
:100EC0002808AC0002300310A90DAA0DAB0DAC0D23
:100ED000FF3E031D632F2C08F5002B08F4002A08A1
:100EE000F3002908F2000030F9003D30F800093025
:100EF000F7000030F6000A128A1113260A128A112E
:100F00007208FF3E8316031393009401871507169A
:100F100008000A128A15B8260A128A1183160313CA
:100F200091150A128A15B8260A128A118312031320
:100F30001308F400F5017408F6007508F7000A12AA
:100F40008A15B8260A128A1172087304031DA92F84
:100F5000AA2FAE2F831603139116B72F72037304B3
:100F6000031DB32FB42FB72F8316031391128316CB
:100F7000031311167708F3007608F2000800FF1B30
:100F8000C92F83137F1883170008840A0319FF0AE7
:100F9000080007308A000408840A820700340134FC
:100FA00000340A34003464340034E8340334103438
:100FB0002734473478343A340034413479343A347D
:100FC0000034253433347534003464343A34003416
:100FD00066343A34003463346D340034F300F20183
:100FE0003A3073020318F52FF62FFE2F30307302BC
:100FF000031CFB2FFC2FFE2FF201F20A720C0800DB
:101CF40083120313901190101014080071088A00C5
:101D0400700E8300FE0E7E0E090064008001840ABA
:101D14000406031900340406882E831203131F14C7
:101D2400831603139F139F121F1208000A128A15A9
:101D3400B8260A128A158316031311150800F20037
:101D44000A128A15B8260A128A1572088312031316
:101D540093000800F200720C83160313031C0C108A
:101D640003180C14831203130C10080083160313B6
:101D74001419BD2EBE2EB82E11081F39031DC32EF3
:101D8400C42EB82E080074088312031385000914A6
:101D9400891009150A128A150A270A128A1583124C
:101DA400031309110800F3000A128A15B8260A124F
:101DB4008A1583160313111473080A128A15A126AF
:101DC4000A128A150800F4007408831203138500AC
:101DD4000910891009150A128A150A270A128A1588
:101DE40083120313091108008316031385010610D7
:101DF40086140611861506128801831203138801BE
:101E040083160313890183160317880189010800C7
:101E1400F201F3010130F2070318F30A0030F3076B
:101E24007308803AFF0080307F02031D1B2F32307D
:101E34007202031C1E2F1F2F0C2F0800F6007603BE
:101E4400031D252F262F2E2F7508803E0A128A1572
:101E5400E5260A128A153B2F02307606031D332F1E
:101E6400342F3B2F7508C03E0A128A15E5260A1244
:101E74008A150800F4004C2F831603130C138312E5
:101E840003130C135C2F831603130C178312031311
:101E94000C135C2F7408F200F3017308003A031961
:101EA400542F5C2F7208003A03193E2F013A03198C
:101EB400452F5C2F0800F4006E2F831203139F1329
:101EC4001F13812F831203139F131F17812F831254
:101ED40003139F171F13812F7408F200F301730873
:101EE400003A0319762F812F7208003A03195F2FE5
:101EF400013A0319642F023A0319692F812F08004C
:101F0400F601F701721C872F882F8E2F7408F607AD
:101F14000318F70A7508F70701300310F40DF50DDF
:101F2400FF3E031D8F2F01300310F30CF20CFF3E14
:101F3400031D962F72087304031DA12FA22F842F53
:101F44007708F3007608F2000800C22F7708FF0034
:101F5400760884000A128A11BF270A128A15F8002B
:101F6400F9017808F4007908F5000A128A15C526E3
:101F74000A128A150130F6070318F70A0030F7072A
:101F8400770883120313FF00760884000A128A116B
:101F9400BF270A128A15003A031DD12FD22FA82F6A
:101FA4000800F400E92F8312031390121012FF2F7C
:101FB4008312031390121016FF2F8312031390162B
:101FC4001012FF2F8312031390161016FF2F74089C
:101FD400F200F3017308003A0319F12FFF2F72087E
:101FE400003A0319D52F013A0319DA2F033A0319DA
:0C1FF400DF2F013A0319E42FFF2F080033
:04400E00D4E0FFFFFC
:00000001FF
