:020000040000FA
:100000000A128A11F32F00308A000408840A82073A
:10001000003466343A3400340A128A1128200A1255
:100020008A11831603131115080083160313850123
:100030008901831603178801890108000A128A11B1
:1000400028200A128A1170088312031393000800F3
:100050008316031314192D282E28282811081F3958
:10006000031D3328342828280800F4007408303E83
:10007000F200003003180130F3000A128A11432005
:100080000A128A11080072088312031385000914EA
:10009000891009150A128A1179200A128A1183120D
:1000A000031309110800F20072088312031385007C
:1000B0000910891009150A128A1179200A128A1169
:1000C0008312031309110800F300F201731C69285D
:1000D0006A286E287008F1007108F2070310F00D0D
:1000E0000310F30C7308031D76287728662872081E
:1000F0000800F001F1010130F0070318F10A0030A7
:10010000F1077108803AFF0080307F02031D8A28C2
:1001100032307002031C8D288E287B280800F400E2
:100120007403031D942895289D287308803E0A12A5
:100130008A1153200A128A11AA2802307406031D5C
:10014000A228A328AA287308C03E0A128A115320A5
:100150000A128A110800F401F501701CB028B128B8
:10016000B7287208F4070318F50A7308F507013079
:100170000310F20DF30DFF3E031DB82801300310EC
:10018000F10CF00CFF3E031DBF2870087104031D25
:10019000CA28CB28AD287508F1007408F0000800C3
:1001A000F600E828760884000A128A1103200A1251
:1001B0008A11F400F5017408F2007508F3000A12C0
:1001C0008A1143200A128A110130F4007408F607DC
:1001D000760884000A128A1103200A128A11003A52
:1001E000031DF328F428D22808000A128A112820B7
:1001F0000A128A118316031391150A128A112820F4
:100200000A128A11831203131308F200F301720811
:10021000F4007308F5000A128A1128200A128A11C4
:1002200070087104031D152916291A298316031352
:100230009116232970037104031D1F2920292329E6
:100240008316031391128316031311167508F10018
:100250007408F000080028308312031394008316FA
:1002600003139101831203132008A4002108A500A1
:100270002208A6002308A70002300310A40DA50D34
:10028000A60DA70DFF3E031D3D292708F3002608F4
:10029000F2002508F1002408F0000030F7003D309E
:1002A000F6000930F5000030F4000A128A11FD2131
:1002B0000A128A117008FF3E8316031393009401FB
:1002C000871507160800F501F60170087104031977
:1002D0006A296B29A229F701F70A7929013003104D
:1002E000F00DF10DFF3E031D6F290130F40074087D
:1002F000F707F11F7C297D296E2901300310F50DC8
:10030000F60DFF3E031D7E2971087302031D8A2925
:1003100070087202031C8D298E2995297008F2023B
:100320007108031CF303F302751401300310F10C80
:10033000F00CFF3E031D96290130F702031DA12991
:10034000A2297D297608F1007508F00008001A300E
:10035000F400F830F300F30BAB29F40BAB290000E9
:1003600030300A128A1153200A128A110730F40021
:100370007D30F300F30BBA29F40BBA2930300A129E
:100380008A1153200A128A11C730F300C729F30BD0
:10039000C629CA29CB2930300A128A1153200A12E1
:1003A0008A11C730F300D429F30BD329D729D829D0
:1003B00038300A128A1153200A128A1110300A1298
:1003C0008A1153200A128A1101300A128A1153200D
:1003D0000A128A1106300A128A1153200A128A114F
:1003E0000C300A128A1153200A128A1180300A1224
:1003F0008A1153200A128A1108000030FC000030D4
:10040000FB000030FA000030F90073087204710438
:10041000700403190C2A0D2A5A2AFD01FD0A1D2A0F
:100420000130F8000310F00DF10DF20DF30DF80B93
:10043000122A0130F8007808FD07F31F202A212A2C
:10044000102A0130F8000310F90DFA0DFB0DFC0D18
:10045000F80B232A73087702031D382A72087602E4
:10046000031D382A71087502031D382A70087402AA
:10047000031C3B2A3C2A4B2A7008F4027108031C17
:10048000710FF5027208031C720FF6027308031C49
:10049000730FF702791401300310F30CF20CF10C16
:1004A000F00CFF3E031D4C2A0130FD02031D592AAA
:1004B0005A2A212A7C08F3007B08F2007A08F1000E
:1004C0007908F0000800F200B52A831603130F170D
:1004D0008F160F168F110F158F100F14D72A831632
:1004E00003130F178F160F128F110F158F100F1484
:1004F000D72A831603130F178F120F168F110F159C
:100500008F100F14D72A831603130F178F120F1291
:100510008F110F158F100F14D72A831603130F1383
:100520008F160F168F110F158F100F14D72A8316E1
:1005300003130F138F160F128F110F158F100F1437
:10054000D72A831603130F138F120F168F110F154F
:100550008F100F14D72A831603130F138F120F1245
:100560008F110F118F140F14D72A7208F000F101A8
:100570007108003A0319BD2AD72A7008003A0319F6
:10058000652A013A03196F2A033A0319792A013AB5
:100590000319832A073A03198D2A013A0319972A66
:1005A000033A0319A12A013A0319AB2AD72A0800F2
:1005B0000310831203133C0D3D0DBE003E08C40022
:1005C0004408031DE42AE52AEE2A0030BD0000306D
:1005D000BC000030BB000030BA00532B3A08BE000C
:1005E0003B08BF003C08C0003D08C1001F3003109D
:1005F000C10CC00CBF0CBE0CFF3E031DF72A3E0809
:10060000C2004208C300BC17FF30BA05FF30BB056B
:10061000FF30BC050030BD059630C402C41F112B4D
:10062000122B2C2B4408803A973E0318182B192BB9
:100630001A2BE52A01300310BD0CBC0CBB0CBA0C04
:10064000FF3E031D1B2B0130BE003E08C407031DE7
:100650002A2B2B2B1A2B432B20304402031C312B2B
:10066000322B3E2BE52A0130BE000310BA0DBB0D24
:10067000BC0DBD0DBE0B352B0130C4024408031D5B
:10068000422B432B332B43080319472B482B532B67
:10069000BA09BB09BC09BD09BA0A0319BB0A031987
:1006A000BC0A0319BD0A0800F80078080319592B81
:1006B0005A2B6E2BF31F5D2B5E2B6E2B7009FA00ED
:1006C0007109FB007209FC007309FD00FA0A0319A5
:1006D000FB0A0319FC0A0319FD0A762B7308FD00B7
:1006E0007208FC007108FB007008FA0073087204BD
:1006F00071047004031D7D2B7E2B872B0030F300CB
:100700000030F2000030F1000030F0000D2C963087
:10071000F4007408F900992B0130F4007408F9070B
:1007200001300310FD0CFC0CFB0CFA0CFF3E031D0A
:10073000912BFE307D05031D9E2B9F2B8C2BBB2BFD
:100740000130F4007408F9070130FA07003003188B
:100750000130FB07003003180130FC07003003189C
:100760000130FD0701300310FD0CFC0CFB0CFA0CF2
:10077000FF3E031DB32BFF307D05031DC02BC12B96
:10078000A02BCD2B0130F9020130F4000310FA0D3B
:10079000FB0DFC0DFD0DF40BC62BFC1BD02BD12B40
:1007A000D72B023079020318D62BD72BC22B7918FE
:1007B000DA2BDB2BE32BFF30FA05FF30FB057F3014
:1007C000FC05FF30FD050310F90C7908F400F50174
:1007D000F601F70118300310F40DF50DF60DF70DC5
:1007E000FF3E031DEB2B7408FA047508FB04760822
:1007F000FC047708FD0478080319FF2B002C052C56
:10080000F31F032C042C052CFD177D08F3007C0836
:10081000F2007B08F1007A08F0000800831203134D
:1008200027088039A8002808B1002708A800280751
:10083000A9002908B800A61F1E2C1F2C202C381434
:1008400038080319242C252C352C380A031D292C93
:100850002A2C322C0030A7000030A6000030A50062
:100860000030A400A617A7013D2C0030A7000030DF
:10087000A6000030A5000030A40023088039A8009D
:100880002808B1062308A8002807A9002908B900EC
:10089000A21F4B2C4C2C4D2C391439080319512C08
:1008A000522C622C390A031D562C572C5F2C003019
:1008B000A3000030A2000030A1000030A000A21769
:1008C000A3016A2C0030A3000030A2000030A10078
:1008D0000030A0002308220421042004031D712CF1
:1008E000722C8B2C0030A7000030A6000030A50031
:1008F0000030A4008030A6047F30A7043108A8008F
:100900002808A7042708A3002608A2002508A1009C
:100910002408A000EA2D3808031D8F2C902C992C58
:100920000030A3000030A2000030A1000030A00081
:10093000EA2D3808A800A9012908AB0039082802C7
:10094000AA00031CAB032A087F3EB2002B08031841
:10095000013E003EB3002708B0002608AF0025087E
:10096000AE002408AD000030A7000030A600003023
:10097000A5000030A4000030B7000030B600003001
:10098000B5000030B400B9010F2D39080319C92C86
:10099000CA2CEA2C0130A8000310AD0DAE0DAF0D2E
:1009A000B00DA80BCC2C0130A8000310A40DA50D90
:1009B000A60DA70DA80BD52CB71FDF2CE02CE12C22
:1009C00024140130A8000310B40DB50DB60DB70DF9
:1009D000A80BE32C23083002031DF82C22082F0259
:1009E000031DF82C21082E02031DF82C20082D02CF
:1009F000031CFB2CFC2C0B2D37172008AD02210803
:100A0000031C210FAE022208031C220FAF02230891
:100A1000031C230FB0020130A8002808B9071A30C0
:100A20003902031C142D152DC52C30082F042E045B
:100A30002D0403191C2D1D2D3C2D34143C2D01308B
:100A4000A8000310A40DA50DA60DA70DA80B212D20
:100A5000B71F2B2D2C2D2D2D24140130A800031091
:100A6000B40DB50DB60DB70DA80B2F2DFF30B20785
:100A70000318B30AFF30B307A61F3F2D402D1F2DCB
:100A8000B901B71F442D452D612DFF303405A80055
:100A9000FF303505A900FF303605AA007F30370545
:100AA000AB002B082A04290428040319582D592DBA
:100AB0005C2DB901B90A612D241C5F2D602D612DBB
:100AC000592D39080319652D662D972D0130A4077E
:100AD000003003180130A507003003180130A607C5
:100AE000003003180130A707271C772D782D972D8C
:100AF0002408A8002508A9002608AA002708AB009A
:100B00000130AC002B0DAB0CAA0CA90CA80CAC0B43
:100B1000822D2B08A7002A08A6002908A50028086E
:100B2000A4000130B2070318B30A0030B30733083A
:100B3000803AFF0080307F02031DA02DFF3032027B
:100B4000031CA32DA42DB22DFF3083120313B2007A
:100B50000030B3000030A7000030A6000030A50030
:100B60000030A400831203133308803AFF00803062
:100B70007F02031DBD2D013032020318C02DC12D8F
:100B8000CE2D83120313B201B3010030A700003051
:100B9000A6000030A5000030A400B10183120313A9
:100BA0003208A8002808B800381CD72DD82DDA2D17
:100BB000A617DE2D7F30A8002808A6053808A80053
:100BC0000310280CA9002908A7003108A80028084C
:100BD000A704822C08000A128A1115200A128A1111
:100BE00001300A128A1163220A128A11003083121C
:100BF0000313A3000130A2008630A100A030A000A2
:100C00000A128A112B210A128A110A128A11A721AB
:100C10000A128A1110308312031390000A128A15E7
:100C2000F7270A128A111130F0000030F1000A1281
:100C30008A111E200A128A110030F000F1000A12F7
:100C40008A11F5200A128A11710883120313D30046
:100C50007008D2000A128A110C200A128A1102307E
:100C600083120313C7000430C600B930C500C50B9A
:100C7000372EC60B372EC70B372E3E2E831203138B
:100C80008F018E010614023083120313C500C50BB9
:100C9000472E0000831203130610861C502E512E7F
:100CA0004D2E10148618552E562E522E10100F0849
:100CB000D5000E08D4005408F0005508F1000030AB
:100CC000F11BFF30F200F30001300A128A115423A5
:100CD0000A128A11730883120313A7007208A60070
:100CE0007108A5007008A4004130A300EB30A200F9
:100CF0004B30A100C730A0000A128A110E240A123C
:100D00008A11831203132308BD002208BC002108A6
:100D1000BB002008BA000A128A11D8220A128A11CE
:100D2000831203133B08D5003A08D4005408013E4F
:100D3000D40055080318013E003ED5005508803AFE
:100D4000FF0080307F02031DA72E65305402031878
:100D5000AA2EAB2EDC2E831203135508803AFF0017
:100D600080307F02031DB62E32305402031CB92E90
:100D7000BA2EDC2E8312031386150330831203135D
:100D8000C7008A30C6005530C500C50BC52EC60B3E
:100D9000C52EC70BC52E831203138611063083128E
:100DA0000313C7001330C600AD30C500C50BD62EE7
:100DB000C60BD62EC70BD62E831203135508803AC6
:100DC000FF0080307F02031DE72E323054020318EB
:100DD000EA2EEB2E1C2F831203135508803AFF00D6
:100DE00080307F02031DF62E15305402031CF92EAD
:100DF000FA2E1C2F8312031386150330831203135C
:100E0000C7008A30C6005530C500C50B052FC60B7C
:100E1000052FC70B052F831203138611033083128E
:100E20000313C7008A30C6005530C500C50B162F06
:100E3000C60B162FC70B162F831203135508803AC3
:100E4000FF0080307F02031D272F14305402031847
:100E50002A2F2B2F2E2F831203138615F301013017
:100E60000A128A118F200A128A110A128A11792015
:100E70000A128A1101300A128A11D0200A128A112C
:100E80000A128A1179200A128A110430831203137C
:100E9000C5004508F30001300A128A118F200A129A
:100EA0008A110A128A1179200A128A116430F0001C
:100EB0000030F100831203135308F3005208F200CC
:100EC0000A128A1163210A128A117008831203130D
:100ED000C5004508D8005808C500C6014508F000FF
:100EE0004608F1009C30F200FF30F3000A128A112C
:100EF000AB200A128A118312031352087007D20022
:100F000053080318530A7107D3000A30F000003069
:100F1000F1005308F3005208F2000A128A1163210B
:100F20000A128A11700883120313C5004508D700FE
:100F3000F630C5004508F00057080A128A116420EF
:100F40000A128A11831203135207C6004608D600FC
:100F500056080A128A1135200A128A110A128A11B9
:100F600079200A128A11033083120313C500450841
:100F7000F30001300A128A118F200A128A110A1214
:100F80008A1179200A128A118312031357080A1250
:100F90008A1135200A128A110A128A1179200A123E
:100FA0008A11023083120313C5004508F300013093
:100FB0000A128A118F200A128A110A128A117920C4
:100FC0000A128A118312031358080A128A11352053
:100FD0000A128A110A128A1179200A128A110E2E17
:100FE0000A128A11002883134830840059300A12EB
:100FF0008A15EF270A128A1183010A128A11EB2D32
:101FDE0064008001840A0406031900340406F02FFD
:101FEE000A128A1128200A128A1583160313111455
:021FFE000800D9
:04400E00D4E0FFFFFC
:00000001FF
