:020000040000FA
:100000000A128A11F22F00308A000408840A82073B
:0E001000003464343A34003463346D34003408
:1001CA000A128A110A210A128A11831603131114B8
:1001DA0008000A128A110A210A128A1183160313C5
:1001EA001115080083160313850189018316031765
:1001FA008801890108000A128A110A210A128A1141
:10020A00700883120313930008008316031314194A
:10021A000F2910290A2911081F39031D1529162922
:10022A000A290800F4007408303EF200003003186E
:10023A000130F3000A128A1125210A128A110800D4
:10024A0072088312031385000914891009150A120A
:10025A008A1146210A128A1183120313091108000E
:10026A00F200720883120313850009108910091518
:10027A000A128A1146210A128A11831203130911DA
:10028A000800F001F1010130F0070318F10A00300B
:10029A00F1077108803AFF0080307F02031D572959
:1002AA0032307002031C5A295B2948290800F400DD
:1002BA007403031D612962296A297308803E0A12A0
:1002CA008A1135210A128A11772902307406031D10
:1002DA006F29702977297308C03E0A128A113521BD
:1002EA000A128A110800F6009029760884000A1278
:1002FA008A1103200A128A11F400F5017408F20027
:10030A007508F3000A128A1125210A128A1101308E
:10031A00F4007408F607760884000A128A1103208A
:10032A000A128A11003A031D9B299C297A2908007E
:10033A000A128A110A210A128A11831603139115C5
:10034A000A128A110A210A128A1183120313130844
:10035A00F200F3017208F4007308F5000A128A1118
:10036A000A210A128A1170087104031DBD29BE29C7
:10037A00C229831603139116CB2970037104031D36
:10038A00C729C829CB29831603139112831603138D
:10039A0011167508F1007408F0000800283083125D
:1003AA000313940083160313910183120313200885
:1003BA00A4002108A5002208A6002308A7000230ED
:1003CA000310A40DA50DA60DA70DFF3E031DE529DB
:1003DA002708F3002608F2002508F1002408F00097
:1003EA000030F7003D30F6000930F5000030F40027
:1003FA000A128A11DF220A128A117008FF3E831636
:10040A0003139300940187150716080070087104F6
:10041A000319102A112A402AF501F50A1F2A013068
:10042A000310F00DF10DFF3E031D152A0130F400F3
:10043A007408F507F11F222A232A142A7108730265
:10044A00031D292A70087202031C2C2A2D2A332A1A
:10045A007008F2027108031CF303F302013003105F
:10046A00F10CF00CFF3E031D342A0130F502031D86
:10047A003F2A402A232A7308F1007208F000080074
:10048A00F501F6017008710403194C2A4D2A842AD1
:10049A00F701F70A5B2A01300310F00DF10DFF3E58
:1004AA00031D512A0130F4007408F707F11F5E2A70
:1004BA005F2A502A01300310F50DF60DFF3E031D89
:1004CA00602A71087302031D6C2A70087202031CE9
:1004DA006F2A702A772A7008F2027108031CF30344
:1004EA00F302751401300310F10CF00CFF3E031DEA
:1004FA00782A0130F702031D832A842A5F2A7608A4
:10050A00F1007508F00008001A30F400F830F30022
:10051A00F30B8D2AF40B8D2A000030300A128A114F
:10052A0035210A128A110730F4007D30F300F30BEB
:10053A009C2AF40B9C2A30300A128A1135210A129D
:10054A008A11C730F300A92AF30BA82AAC2AAD2ACC
:10055A0030300A128A1135210A128A11C730F30083
:10056A00B62AF30BB52AB92ABA2A38300A128A11DE
:10057A0035210A128A1110300A128A1135210A12FB
:10058A008A1101300A128A1135210A128A1106309B
:10059A000A128A1135210A128A110C300A128A119A
:1005AA0035210A128A1180300A128A1135210A125B
:1005BA008A1108000030FC000030FB000030FA000D
:1005CA000030F90073087204710470040319EE2AEA
:1005DA00EF2A3C2BFD01FD0AFF2A0130F800031027
:1005EA00F00DF10DF20DF30DF80BF42A0130F800BD
:1005FA007808FD07F31F022B032BF22A0130F800BB
:10060A000310F90DFA0DFB0DFC0DF80B052B730801
:10061A007702031D1A2B72087602031D1A2B710822
:10062A007502031D1A2B70087402031C1D2B1E2B46
:10063A002D2B7008F4027108031C710FF502720861
:10064A00031C720FF6027308031C730FF702791466
:10065A0001300310F30CF20CF10CF00CFF3E031DF9
:10066A002E2B0130FD02031D3B2B3C2B032B7C0858
:10067A00F3007B08F2007A08F1007908F00008001C
:10068A00F200972B831603130F178F160F168F116D
:10069A000F158F100F14B92B831603130F178F160C
:1006AA000F128F110F158F100F14B92B8316031306
:1006BA000F178F120F168F110F158F100F14B92BDA
:1006CA00831603130F178F120F128F110F158F1026
:1006DA000F14B92B831603130F138F160F168F11CE
:1006EA000F158F100F14B92B831603130F138F16C0
:1006FA000F128F110F158F100F14B92B83160313B6
:10070A000F138F120F168F110F158F100F14B92B8D
:10071A00831603130F138F120F128F110F118F14D9
:10072A000F14B92B7208F000F1017108003A03198D
:10073A009F2BB92B7008003A0319472B013A03196A
:10074A00512B033A03195B2B013A0319652B073A1C
:10075A0003196F2B013A0319792B033A0319832BD7
:10076A00013A03198D2BB92B0800031083120313C6
:10077A003C0D3D0DBE003E08C4004408031DC62BB7
:10078A00C72BD02B0030BD000030BC000030BB00AE
:10079A000030BA00352C3A08BE003B08BF003C08BE
:1007AA00C0003D08C1001F300310C10CC00CBF0CB3
:1007BA00BE0CFF3E031DD92B3E08C2004208C300EF
:1007CA00BC17FF30BA05FF30BB05FF30BC0500304F
:1007DA00BD059630C402C41FF32BF42B0E2C44081B
:1007EA00803A973E0318FA2BFB2BFC2BC72B0130C0
:1007FA000310BD0CBC0CBB0CBA0CFF3E031DFD2B39
:10080A000130BE003E08C407031D0C2C0D2CFC2B26
:10081A00252C20304402031C132C142C202CC72B0B
:10082A000130BE000310BA0DBB0DBC0DBD0DBE0BD1
:10083A00172C0130C4024408031D242C252C152C26
:10084A0043080319292C2A2C352CBA09BB09BC09DF
:10085A00BD09BA0A0319BB0A0319BC0A0319BD0A5E
:10086A000800F800780803193B2C3C2C502CF31F85
:10087A003F2C402C502C7009FA007109FB007209B8
:10088A00FC007309FD00FA0A0319FB0A0319FC0AA2
:10089A000319FD0A582C7308FD007208FC00710840
:1008AA00FB007008FA007308720471047004031DD7
:1008BA005F2C602C692C0030F3000030F20000300D
:1008CA00F1000030F000EF2C9630F4007408F900C3
:1008DA007B2C0130F4007408F90701300310FD0C79
:1008EA00FC0CFB0CFA0CFF3E031D732CFE307D053D
:1008FA00031D802C812C6E2C9D2C0130F400740871
:10090A00F9070130FA07003003180130FB070030FD
:10091A0003180130FC07003003180130FD070130CD
:10092A000310FD0CFC0CFB0CFA0CFF3E031D952C6E
:10093A00FF307D05031DA22CA32C822CAF2C013085
:10094A00F9020130F4000310FA0DFB0DFC0DFD0D48
:10095A00F40BA82CFC1BB22CB32CB92C0230790254
:10096A000318B82CB92CA42C7918BC2CBD2CC52C76
:10097A00FF30FA05FF30FB057F30FC05FF30FD052F
:10098A000310F90C7908F400F501F601F7011830A3
:10099A000310F40DF50DF60DF70DFF3E031DCD2CDA
:1009AA007408FA047508FB047608FC047708FD0449
:1009BA0078080319E12CE22CE72CF31FE52CE62C2E
:1009CA00E72CFD177D08F3007C08F2007B08F10094
:1009DA007A08F00008000A128A11F7200A128A110E
:1009EA0001300A128A1145230A128A110030831231
:1009FA000313A3000130A2008630A100A030A0009A
:100A0A000A128A11D3210A128A110A128A11892218
:100A1A000A128A110A128A11E5200A128A11113061
:100A2A00F0000030F1000A128A1100210A128A111C
:100A3A000030F000F1000A128A119D210A128A116F
:100A4A00710883120313CD007008CC000A128A11B0
:100A5A00EE200A128A11C73083120313C500352DFE
:100A6A00C50B342D382D831203134C08F0004D08A2
:100A7A00F100F201F30100300A128A1136240A1237
:100A8A008A11730883120313A7007208A60071085B
:100A9A00A5007008A4004130A300EB30A2004B303F
:100AAA00A100C730A0000A128A1115260A128A115B
:100ABA00831203132308BD002208BC002108BB00CF
:100ACA002008BA000A128A11BA230A128A1183125A
:100ADA0003133B08CD003A08CC004C08013ECC0079
:100AEA004D080318013E003ECD00F30101300A1201
:100AFA008A115C210A128A110A128A1146210A12E3
:100B0A008A1101300A128A1178210A128A110A12EC
:100B1A008A1146210A128A11033083120313C5006F
:100B2A004508F30001300A128A115C210A128A115F
:100B3A000A128A1146210A128A110A30F00000307C
:100B4A00F100831203134D08F3004C08F2000A1255
:100B5A008A110B220A128A1170080A128A111721A5
:100B6A000A128A110A128A1146210A128A110230BD
:100B7A0083120313C5004508F30001300A128A11D3
:100B8A005C210A128A110A128A1146210A128A1152
:100B9A000A30F0000030F100831203134D08F3000D
:100BAA004C08F2000A128A1145220A128A117108A7
:100BBA0083120313CD007008CC000A30F000003015
:100BCA00F1004D08F3004C08F2000A128A110B22B8
:100BDA000A128A1170080A128A1117210A128A1136
:100BEA000A128A1146210A128A1104308312031347
:100BFA00C5004508F30001300A128A115C210A1265
:100C0A008A110A128A1146210A128A1104300A121A
:100C1A008A1178210A128A110F2D0A128A110028C4
:100C2A008312031327088039A8002808B10027086F
:100C3A00A8002807A9002908B800A61F252E262ED5
:100C4A00272E3814380803192B2E2C2E3C2E380A3E
:100C5A00031D302E312E392E0030A7000030A60099
:100C6A000030A5000030A400A617A701442E0030CA
:100C7A00A7000030A6000030A5000030A400230819
:100C8A008039A8002808B1062308A8002807A90067
:100C9A002908B900A21F522E532E542E391439088E
:100CAA000319582E592E692E390A031D5D2E5E2E00
:100CBA00662E0030A3000030A2000030A1000030F0
:100CCA00A000A217A301712E0030A3000030A200D9
:100CDA000030A1000030A0002308220421042004CF
:100CEA00031D782E792E922E0030A7000030A60020
:100CFA000030A5000030A4008030A6047F30A7048D
:100D0A003108A8002808A7042708A3002608A2007B
:100D1A002508A1002408A000F12F3808031D962EEB
:100D2A00972EA02E0030A3000030A2000030A100B0
:100D3A000030A000F12F3808A800A9012908AB004B
:100D4A0039082802AA00031CAB032A087F3EB20016
:100D5A002B080318013E003EB3002708B0002608FE
:100D6A00AF002508AE002408AD000030A70000300F
:100D7A00A6000030A5000030A4000030B700003003
:100D8A00B6000030B5000030B400B901162F39089A
:100D9A000319D02ED12EF12E0130A8000310AD0D6B
:100DAA00AE0DAF0DB00DA80BD32E0130A800031065
:100DBA00A40DA50DA60DA70DA80BDC2EB71FE62EB8
:100DCA00E72EE82E24140130A8000310B40DB50D47
:100DDA00B60DB70DA80BEA2E23083002031DFF2E0D
:100DEA0022082F02031DFF2E21082E02031DFF2EAB
:100DFA0020082D02031C022F032F122F3717200859
:100E0A00AD022108031C210FAE022208031C220F87
:100E1A00AF022308031C230FB0020130A8002808E0
:100E2A00B9071A303902031C1B2F1C2FCC2E30088D
:100E3A002F042E042D040319232F242F432F341497
:100E4A00432F0130A8000310A40DA50DA60DA70D70
:100E5A00A80B282FB71F322F332F342F2414013019
:100E6A00A8000310B40DB50DB60DB70DA80B362F9B
:100E7A00FF30B2070318B30AFF30B307A61F462F85
:100E8A00472F262FB901B71F4B2F4C2F682FFF3042
:100E9A003405A800FF303505A900FF303605AA0041
:100EAA007F303705AB002B082A04290428040319CC
:100EBA005F2F602F632FB901B90A682F241C662F90
:100ECA00672F682F602F390803196C2F6D2F9E2FFB
:100EDA000130A407003003180130A50700300318B9
:100EEA000130A607003003180130A707271C7E2F00
:100EFA007F2F9E2F2408A8002508A9002608AA00EB
:100F0A002708AB000130AC002B0DAB0CAA0CA90CC6
:100F1A00A80CAC0B892F2B08A7002A08A6002908C1
:100F2A00A5002808A4000130B2070318B30A00304C
:100F3A00B3073308803AFF0080307F02031DA72FD2
:100F4A00FF303202031CAA2FAB2FB92FFF308312B6
:100F5A000313B2000030B3000030A7000030A6002F
:100F6A000030A5000030A400831203133308803A2E
:100F7A00FF0080307F02031DC42F013032020318A4
:100F8A00C72FC82FD52F83120313B201B301003024
:100F9A00A7000030A6000030A5000030A400B1016F
:100FAA00831203133208A8002808B800381CDE2F61
:100FBA00DF2FE12FA617E52F7F30A8002808A60506
:100FCA003808A8000310280CA9002908A70031082E
:100FDA00A8002808A704892E080083120313C60153
:100FEA00C701C801C901CA01CB01CC01CD018301E6
:060FFA000A128A11F02C1E
:04400E00D4E0FFFFFC
:00000001FF
