:020000040000FA
:060000000A128A110C280F
:10000800FE00030EF1000A08F2000A128A15CE2932
:100018000A128A110F28F901FA018313613084004A
:100028006F300A128A1581210A128A11A0308400C1
:10003800C6300A128A1581210A128A1183010A120E
:100048008A1126280A128A159E210A128A110A1272
:100058008A157E210A128A1101300A128A15C023D4
:100068000A128A110A128A15F2210A128A11F30158
:1000780000300A128A15BE210A128A11F301F30A06
:1000880001300A128A15AE210A128A11F3011930B9
:1000980083160313C6004608F40001300A128A15B5
:1000A80004220A128A11F30101300A128A152E223B
:1000B8000A128A11003083120313AB000130AA0020
:1000C8008630A900A030A8000A128A159C220A12BC
:1000D8008A110A128A15B1240A128A11D0300A121A
:1000E8008A1518220A128A113B30F3000030F400F6
:1000F8000A128A15E0210A128A110A128A15892120
:100108000A128A11D1300A128A1518220A128A1183
:100118000030F300F4000A128A1565220A128A11C7
:10012800730883160313C6007408C7004608C7007F
:10013800C6010030F300F4000A128A1565220A127B
:100148008A11730883160313460483120313ED0000
:10015800740883160313470483120313EE00003058
:10016800F300F4000A128A1565220A128A1173082C
:1001780083160313C6007408C7004608C700C601E3
:100188000030F300F4000A128A1565220A128A1157
:10019800730883160313460483120313EB007408D1
:1001A80083160313470483120313EC000030F30093
:1001B800F4000A128A1565220A128A117308831636
:1001C8000313C6007408C7004608C700C6010030FC
:1001D800F300F4000A128A1565220A128A117308BC
:1001E80083160313460483120313E9007408831665
:1001F8000313470483120313EA000030F300F400EA
:100208000A128A1565220A128A11730883160313C3
:10021800C6007408C7004608C700C6010030F300CE
:10022800F4000A128A1565220A128A1173088316C5
:100238000313460483120313E1007408831603139F
:10024800470483120313E2000030F300F4000A129B
:100258008A1565220A128A11730883160313C600C9
:100268007408C7004608C700C6010030F300F40050
:100278000A128A1565220A128A1173088316031353
:10028800460483120313E700740883160313470414
:1002980083120313E8000030F300F4000A128A15F1
:1002A80065220A128A11730883160313C60074089C
:1002B800C7004608C700C6010030F300F4000A1260
:1002C8008A1565220A128A117308831603134604D5
:1002D80083120313E500740883160313470483127B
:1002E8000313E6000030F300F4000A128A156522B1
:1002F8000A128A11730883160313C6007408C7000C
:100308004608C700C6010130F3000030F4000A12A5
:100318008A1565220A128A11730883160313460484
:1003280083120313E300740883160313470483122C
:100338000313E4000A128A1589210A128A1183120A
:1003480003136D08F3006E08F4000030F41BFF304F
:10035800F500F60001300A128A1567250A128A117B
:10036800760883120313B1007508B0007408AF0053
:100378007308AE004630AD008030AC000030AB00F2
:100388000030AA000A128A1523260A128A1183123B
:1003980003132D08DB002C08DA002B08D9002A08E3
:1003A800D8000A128A1535240A128A1183120313F7
:1003B800590883160313B9008312031358088316C8
:1003C8000313B800831203136B08F3006C08F400DE
:1003D8000030F41BFF30F500F60001300A128A15D0
:1003E80067250A128A11760883120313B10075086B
:1003F800B0007408AF007308AE004630AD0080301E
:10040800AC000030AB000030AA000A128A1523267F
:100418000A128A11831203132D08DB002C08DA0054
:100428002B08D9002A08D8000A128A1535240A127E
:100438008A1183120313590883160313B700831212
:100448000313580883160313B600831203136908AD
:10045800F3006A08F4000030F41BFF30F500F600E2
:1004680001300A128A1567250A128A117608831242
:100478000313B1007508B0007408AF007308AE002C
:100488004630AD008030AC000030AB000030AA0030
:100498000A128A1523260A128A11831203132D08B9
:1004A800DB002C08DA002B08D9002A08D8000A1229
:1004B8008A1535240A128A118312031359088316E0
:1004C8000313B50083120313580883160313B400EB
:1004D800831203136708F3006808F4000030F41B64
:1004E800FF30F500F60001300A128A1567250A1256
:1004F8008A11760883120313B1007508B0007408D6
:10050800AF007308AE004330AD000330AC000030DC
:10051800AB000030AA000A128A1523260A128A1193
:10052800831203132D08DB002C08DA002B08D900EE
:100538002A08D8000A128A1535240A128A11831249
:100548000313590883160313B300831203135808BF
:1005580083160313B200831203136508F3006608B9
:10056800F4000030F41BFF30F500F60001300A12E9
:100578008A1567250A128A11760883120313B100B7
:100588007508B0007408AF007308AE004330AD00C2
:100598000330AC000030AB000030AA000A128A1504
:1005A80023260A128A11831203132D08DB002C0854
:1005B800DA002B08D9002A08D8000A128A1535242F
:1005C8000A128A1183120313590883160313B10000
:1005D80083120313580883160313B00083120313FE
:1005E8006308F3006408F4000030F41BFF30F500E2
:1005F800F60001300A128A1567250A128A11760850
:1006080083120313B1007508B0007408AF007308B3
:10061800AE004330AD000330AC000030AB0000301A
:10062800AA000A128A1523260A128A1183120313B2
:100638002D08DB002C08DA002B08D9002A08D8007E
:100648000A128A1535240A128A11831203135908CB
:1006580083160313AF00831203135808831603137A
:10066800AE00831203136108F3006208F40000303F
:10067800F41BFF30F500F60001300A128A156725D1
:100688000A128A11760883120313B1007508B000A4
:100698007408AF007308AE004330AD00AA30AC0058
:1006A8000030AB000030AA000A128A1523260A126D
:1006B8008A11831203132D08CB002C08CA002B08BB
:1006C800C9002A08C8004230C7001230C6001E30D0
:1006D800C500B830C4000A128A117F240A128A1190
:1006E800831203134708DB004608DA004508D900DF
:1006F8004408D8000A128A1535240A128A1183126E
:100708000313590883160313AD0083120313580803
:1007180083160313AC004030C60046088312031347
:10072800A80083160313390883120313AA0083163B
:100738000313380883120313A900BA300A128A1166
:1007480007270A128A11BA300A128A1544220A1295
:100758008A114C3083160313C6004608831203130C
:10076800A80083160313370883120313AA008316FD
:100778000313360883120313A900BA300A128A1128
:1007880007270A128A11BA300A128A1544220A1255
:100798008A11333083160313C600460883120313E5
:1007A800A80083160313350883120313AA008316BF
:1007B8000313340883120313A900BA300A128A11EA
:1007C80007270A128A11BA300A128A1544220A1215
:1007D8008A110B3083160313C600460883120313CD
:1007E800A800831603132D0883120313AA00831687
:1007F80003132C0883120313A900BA300A128A11B2
:1008080007270A128A11BA300A128A1544220A12D4
:100818008A11193083160313C6004608831203137E
:10082800A80083160313330883120313AA00831640
:100838000313320883120313A900BA300A128A116B
:1008480007270A128A11BA300A128A1544220A1294
:100858008A11263083160313C60046088312031331
:10086800A80083160313310883120313AA00831602
:100878000313300883120313A900BA300A128A112D
:1008880007270A128A11BA300A128A1544220A1254
:100898008A11583083160313C600460883120313BF
:1008A800A800831603132F0883120313AA008316C4
:1008B80003132E0883120313A900BA300A128A11EF
:1008C80007270A128A11BA300A128A1544220A1214
:1008D8008A11033083160313C8008A30C7005530C5
:1008E800C600C60B752CC70B752CC80B752C722847
:1008F8000A128A110C288312031347088039CC0086
:100908004C08D4004708CC004C07CD004D08D60051
:10091800C61F8F2C902C912C561456080319952C11
:10092800962CA62C560A031D9A2C9B2CA32C00301F
:10093800C7000030C6000030C5000030C400C6172C
:10094800C701AE2C0030C7000030C6000030C5001B
:100958000030C4004B088039CC004C08D50055083D
:1009680054060319B82CB92CBA2C54174B08CC00D0
:100978004C07CD004D08D500CA1FC32CC42CC52C6C
:10098800551455080319C92CCA2CDA2C550A031D0D
:10099800CE2CCF2CD72C0030CB000030CA00003032
:1009A800C9000030C800CA17CB01E22C0030CB00C8
:1009B8000030CA000030C9000030C800560855028F
:1009C8000318E72CE82C2C2D541FEB2CEC2CF02CC6
:1009D8008030CC004C08D4065608CC004C08D70010
:1009E8005508CC004C08D6005708CC004C08D50058
:1009F8004408CC004C08D7004808CC004C08C40078
:100A08005708CC004C08C8004508CC004C08D70053
:100A18004908CC004C08C5005708CC004C08C90050
:100A28004608CC004C08D7004A08CC004C08C60041
:100A38005708CC004C08CA004708CC004C08D7001F
:100A48004B08CC004C08C7005708CC004C08CB001A
:100A5800D7015508CC00CD014D08CF0056084C02EF
:100A6800CE00031CCF034F08803AFF0080307F027E
:100A7800031D402D1A304E02031C432D442D812D99
:100A8800831203134708460445044404031D4D2DEF
:100A98004F2D0130502D0030CC004C08D7000030CD
:100AA800C7000030C6000030C5000030C40055083B
:100AB800CC004C08D600892D571C632D642D6D2D54
:100AC8005708CC0003104C0C0138CD004D08D70056
:100AD8006F2D0310D70C441C722D732D742DD7174E
:100AE8000130CC00470DC70CC60CC50CC40CCC0B90
:100AF800762D0130CC004C08D60783120313550815
:100B08005602031C882D892D602D541B8C2D8D2D8C
:100B1800D82D5608031D912D922D9B2D0030C7000E
:100B28000030C6000030C5000030C400062F480859
:100B3800C407490803110318013E0319A42DC5076A
:100B48004A0803110318013E0319AB2DC6074B08C9
:100B580003110318013E0319B22DC707471CB52D11
:100B6800B62D8C2E571CB92DBA2DC32D5708CC0085
:100B780003104C0C0138CD004D08D700C52D0310CB
:100B8800D70C441CC82DC92DCA2DD7170130CC004D
:100B9800470DC70CC60CC50CC40CCC0BCC2D0130B2
:100BA800CC004C08D6078C2E4708803AFF004B082B
:100BB800803A7F02031DEA2D4A084602031DEA2DEA
:100BC80049084502031DEA2D480844020318ED2D83
:100BD800EE2D462EFF30CC00FF30CD00FF30CE008A
:100BE800FF30CF004808D0004908D1004A08D20099
:100BF8004B08D3004408D0024508031C450F052EB6
:100C0800062ED1024608031C460F0B2E0C2ED202CC
:100C18004708031C470F112E122ED3025008CC0789
:100C280051080318510F192E1A2ECD075208031810
:100C3800520F1F2E202ECE0753080318530ACF0732
:100C48004F08C7004E08C6004D08C5004C08C40030
:100C58008030CC004C08D406D709D70A5708031DA2
:100C6800362E372E542E0130C407003003180130B9
:100C7800C507003003180130C607003003180130DB
:100C8800C707542E4808C4024908031C490FC50267
:100C98004A08031C4A0FC6024B08031C4B0FC70225
:100CA8004708460445044404031D5B2E5C2E882E29
:100CB8005708031D602E612E882E0030C7000030B3
:100CC800C6000030C5000030C400062F0130CC003B
:100CD8000310C40DC50DC60DC70DCC0B6C2ED71F48
:100CE800762E772E782E4414571C7B2E7C2E7F2E42
:100CF8000314D70D812E0310D70D56080319852E1E
:100D0800862E882E0130D602C61F8B2E8C2E6A2E78
:100D1800D501D71F902E912E9F2E57087F39031982
:100D2800962E972E9A2ED501D50A9F2E441C9D2EBD
:100D38009E2E9F2E972E55080319A32EA42ED82E2B
:100D48000130C407003003180130C507003003180C
:100D58000130C607003003180130C707471CB52EFD
:100D6800B62ED82E4408CC004508CD004608CE0043
:100D78004708CF000130D0004F0DCF0CCE0CCD0C62
:100D8800CC0CD00BC02E4F08C7004E08C6004D082B
:100D9800C5004C08C400560A0319D32ED42ED82EE9
:100DA8000130CC004C08D607560A0319DC2EDD2E7C
:100DB800E22E5608031DE12EE22EF02E0030C70069
:100DC8000030C6000030C5000030C4005608031DBE
:100DD800EE2EEF2EF02ED401561CF32EF42EF62E06
:100DE800C617FA2E7F30CC004C08C6055608CC0032
:100DF80003104C0CCD004D08C700D41F042F052F3D
:100E0800062FC717080083120313B3002930AB005D
:100E18002B08AE00DA2F253034060319142F152FAE
:100E2800212F3408AB00330884002B08831380007B
:100E38000130AB002B08B307DA2FAF010130A80748
:100E4800FF30280784000A128A1500200A128A1126
:100E5800B400AB00AC012C08003A0319342FDA2F88
:100E68002B08003A0319EC2F643A03193F2F0D3A67
:100E780003193F2FDA2F2E08840083130008B100CE
:100E8800840A0008B2000230AB002B08AE07B21F7C
:100E98004E2F4F2F582F0330AB002B08AF04B1094A
:100EA800B209B10A0319B20AB401B40A3408AB0092
:100EB8002B07013E84000A128A1500200A128A11A3
:100EC800AC000A128A1500200A128A11AD002D08FA
:100ED8003202031D712F2C0831020318742F752F4D
:100EE800762F802F0130AB002B08B407053034066D
:100EF800031D7F2F802F5A2F2F0803390319852FA1
:100F0800862F912F2D30AB00330884002B088313D4
:100F180080000130AB002B08B3073408AB002B0866
:100F2800B000D12F0A30A3000030A4003008AB0075
:100F38002B07013E84000A128A1500200A128A1122
:100F4800F3000A128A1500200A128A11F4003208E6
:100F5800F6003108F5000A128A1512230A128A11BE
:100F6800740883120313A6007308A5000A128A15D1
:100F7800D6220A128A11831203132308303EAC00CA
:100F88002C08B4003408AB00330884002B08831302
:100F980080000130AB002B08B307FF30AB002B08F3
:100FA800B007300A031DD92FDA2F962F0130A80772
:100FB800FF30280784000A128A1500200A128A11B5
:100FC800AB002B08B4003408031DEB2FEC2F0F2FB8
:100FD800330884008313800108008316031314194F
:100FE800F62FF72FF12F11081F39031DFC2FFD2FA6
:040FF800F12F0800CD
:1010000008308A000408840A82070034013400345E
:101010000A34003464340034E834033410342734A0
:101020002034543420343D34203425346434203486
:101030002034203420342034203400342034473409
:10104000783420343D342034253464342034203442
:1010500020342034003420344734793420343D3473
:1010600020342534643420342034203420340034B7
:10107000203441347A3420343D34203425346434EF
:101080002034203420342034003441347834203467
:101090003D3420342534643420342034203420344A
:1010A00000344134793420343D34203425346434E0
:1010B00020342034203420340034203447347A342F
:1010C00020343D342034253464340D340A34003463
:1012FC008B170B17080064008001840A040603197D
:10130C000034040682290A128A11F1270A128A155E
:10131C008316031311150800F30083160313981C8E
:10132C0098299929932973088312031399000800AB
:10133C008316031387018501831203138501FF3084
:10134C0083160313860083160317880109160800F9
:10135C00F400740C83160313031C981203189816CC
:10136C00730C83120313031C1812031818160800AD
:10137C00F400730C83160313031C181303181817AB
:10138C00740C83120313031C18130318181708008A
:10139C00831203138C1ED329D429D9291A08F000DF
:1013AC007008FA008C1272088A00710E8300FE0E0F
:1013BC007E0E09000A128A11F1270A128A15730887
:1013CC008312031393008C1DEC29ED29E9298C1150
:1013DC0083160313110808008316031307178717C6
:1013EC00181298108312031398171811981083165B
:1013FC00031787130712871007100800F500750CE8
:10140C0083160313031C181103181815730C831679
:10141C000317031C8711031887157408831603130D
:10142C0099000800F7000A128A11F1270A128A158E
:10143C008316031311147708F500F6017508F300F1
:10144C007608F4000A128A15E0210A128A1508009F
:10145C00F400740C83160313031C8C1203188C16E3
:10146C00831203138C12730C83160313031C0C12BC
:10147C0003180C16831203130C120800F700F50165
:10148C00F601592A75087707F400740884000008DF
:10149C000A128A1592210A128A150130F5070318CF
:1014AC00F60A0030F60775087707F4007408840014
:1014BC0083130008031D632A642A482A0800831634
:1014CC0003139115141C6B2A6C2A682A83120313BC
:1014DC001308F5007508F70073087404031D772AC8
:1014EC00782A812A8316031391121116111A7F2A56
:1014FC00802A7C2A8F2A73037404031D862A872A68
:10150C008F2A8316031391161116111A8E2A8F2AFD
:10151C008B2A83128C1D932A942A8F2A7708F50024
:10152C00F6017508F3007608F400080028308312E1
:10153C0003139400831603139101831203132808D9
:10154C00AC002908AD002A08AE002B08AF00023011
:10155C000310AC0DAD0DAE0DAF0DFF3E031DAE2A4D
:10156C002F08A3002E08A2002D08A1002C08A00013
:10157C000030A7003D30A6000930A5000030A400C3
:10158C000A128A1558230A128A158312031320088B
:10159C00FF3E83160313930094018715071608006A
:1015AC0083120313230824040319DD2ADE2A0D2BCE
:1015BC00A701A70AEC2A01300310A30DA40DFF3ECE
:1015CC00031DE22A0130F8007808A707A41FEF2AB0
:1015DC00F02AE12A24082602031DF62A23082502F4
:1015EC00031CF92AFA2A002B2308A5022408031C41
:1015FC00A603A60201300310A40CA30CFF3E031D8E
:10160C00012B0130A702031D0C2B0D2BF02A2608F1
:10161C00A4002508A300080083120313A101A20152
:10162C007308740403191B2B1C2B532BA001A00A49
:10163C002A2B01300310F30DF40DFF3E031D202B5C
:10164C000130F7007708A007F41F2D2B2E2B1F2B32
:10165C0001300310A10DA20DFF3E031D2F2B7408AA
:10166C007602031D3B2B73087502031C3E2B3F2B8C
:10167C00462B7308F5027408031CF603F6022114BA
:10168C0001300310F40CF30CFF3E031D472B01300B
:10169C00A002031D522B532B2E2B2208F4002108E1
:1016AC00F30008000030F7000030F6000030F500C1
:1016BC000030F400831203132308220421042004B5
:1016CC000319692B6A2BB72BF801F80A7A2B013016
:1016DC00F3000310A00DA10DA20DA30DF30B6F2BA6
:1016EC000130F3007308F807A31F7D2B7E2B6D2BA5
:1016FC000130F3000310F40DF50DF60DF70DF30B9F
:10170C00802B23082702031D952B22082602031D7C
:10171C00952B21082502031D952B20082402031C60
:10172C00982B992BA82B2008A4022108031C210F0D
:10173C00A5022208031C220FA6022308031C230F58
:10174C00A702741401300310A30CA20CA10CA00C62
:10175C00FF3E031DA92B0130F802031DB62BB72B3E
:10176C007E2B7708A3007608A2007508A1007408E8
:10177C00A0000800F500122C831603130F178F1608
:10178C000F168F110F158F100F14342C8316031393
:10179C000F178F160F128F110F158F100F14342C6B
:1017AC00831603130F178F120F168F110F158F102F
:1017BC000F14342C831603130F178F120F128F1163
:1017CC000F158F100F14342C831603130F138F1651
:1017DC000F168F110F158F100F14342C8316031343
:1017EC000F138F160F128F110F158F100F14342C1F
:1017FC00831603130F138F120F168F110F158F10E3
:10180C000F14342C831603130F138F120F128F1116
:10181C000F118F140F14342C7508F300F401740895
:10182C00003A03191A2C342C7308003A0319C22BF2
:10183C00013A0319CC2B033A0319D62B013A03199D
:10184C00E02B073A0319EA2B013A0319F42B033A5C
:10185C000319FE2B013A0319082C342C0800031031
:10186C00831203135A0D5B0DDC005C08F80078083A
:10187C00031D412C422C4B2C0030DB000030DA00D5
:10188C000030D9000030D800B02C5808DC005908C2
:10189C00DD005A08DE005B08DF001F300310DF0C90
:1018AC00DE0CDD0CDC0CFF3E031D542C5C08E00050
:1018BC006008F700DA17FF30D805FF30D905FF3084
:1018CC00DA050030DB059630F802F81F6E2C6F2C11
:1018DC00892C7808803A973E0318752C762C772C37
:1018EC00422C01300310DB0CDA0CD90CD80CFF3E67
:1018FC00031D782C0130DC005C08F807031D872CD5
:10190C00882C772CA02C20307802031C8E2C8F2C4A
:10191C009B2C422C0130DC000310D80DD90DDA0DB4
:10192C00DB0DDC0B922C0130F8027808031D9F2C88
:10193C00A02C902C77080319A42CA52CB02CD8091A
:10194C00D909DA09DB09D80A0319D90A0319DA0A01
:10195C000319DB0A0800823083120313A100DD3067
:10196C00A000A00BB72CA10BB72CD0300A128A15F3
:10197C0018220A128A151930F3000030F4000A12EA
:10198C008A15E0210A128A150730F3000030F400A2
:10199C000A128A15E0210A128A150A128A1589215F
:1019AC000A128A15D0300A128A1518220A128A15C0
:1019BC006B30F3000030F4000A128A15E0210A1291
:1019CC008A150030F300F4000A128A15E0210A127D
:1019DC008A150A128A1589210A128A15D0300A1220
:1019EC008A1518220A128A151A30F3000030F400F6
:1019FC000A128A15E0210A128A150030F300F4004D
:101A0C000A128A15E0210A128A150A128A158921EE
:101A1C000A128A15D0300A128A1518220A128A154F
:101A2C001C30F3000030F4000A128A15E0210A126F
:101A3C008A150030F300F4000A128A15E0210A120C
:101A4C008A150A128A1589210A128A15D0300A12AF
:101A5C008A1518220A128A151B30F3000030F40084
:101A6C000A128A15E0210A128A151230F30000308E
:101A7C00F4000A128A15E0210A128A150A128A1534
:101A8C0089210A128A15D0300A128A1518220A12D4
:101A9C008A153830F3000030F4000A128A15E02160
:101AAC000A128A150130F3000030F4000A128A156C
:101ABC00E0210A128A150A128A1589210A128A153E
:101ACC00080083120313A400240803196E2D6F2D34
:101ADC00832DF61F722D732D832D7309A6007409A7
:101AEC00A7007509A8007609A900A60A0319A70A78
:101AFC000319A80A0319A90A8B2D7608A9007508E1
:101B0C00A8007408A7007308A6007608750474046E
:101B1C007304031D922D932D9C2D0030F600003084
:101B2C00F5000030F4000030F300222E9630A000B7
:101B3C002008A500AE2D0130A0002008A50701301B
:101B4C000310A90CA80CA70CA60CFF3E031DA62D78
:101B5C00FE302905031DB32DB42DA12DD02D013040
:101B6C00A0002008A5070130A6070030031801309B
:101B7C00A707003003180130A80700300318013004
:101B8C00A90701300310A90CA80CA70CA60CFF3E4A
:101B9C00031DC82DFF302905031DD52DD62DB52DC0
:101BAC00E22D0130A5020130A0000310A60DA70DF7
:101BBC00A80DA90DA00BDB2DA81BE52DE62DEC2DFA
:101BCC00023025020318EB2DEC2DD72D2518EF2D07
:101BDC00F02DF82DFF30A605FF30A7057F30A805A6
:101BEC00FF30A9050310A50C2508A000A101A20136
:101BFC00A30118300310A00DA10DA20DA30DFF3EE3
:101C0C00031D002E2008A6042108A7042208A804FE
:101C1C002308A90424080319142E152E1A2EF61FB6
:101C2C00182E192E1A2EA9172908F6002808F500C7
:101C3C002708F4002608F300080083120313310868
:101C4C008039B2003208BB003108B2003207B30051
:101C5C003308C200B01F332E342E352E42144208E6
:101C6C000319392E3A2E4A2E420A031D3E2E3F2EC0
:101C7C00472E0030B1000030B0000030AF00003013
:101C8C00AE00B017B101522E0030B1000030B000E0
:101C9C000030AF000030AE002D088039B2003208A1
:101CAC00BB062D08B2003207B3003308C300AC1FCB
:101CBC00602E612E622E431443080319662E672E84
:101CCC00772E430A031D6B2E6C2E742E0030AD0044
:101CDC000030AC000030AB000030AA00AC17AD01F6
:101CEC007F2E0030AD000030AC000030AB00003077
:101CFC00AA002D082C042B042A04031D862E872EE3
:101D0C00A02E0030B1000030B0000030AF00003029
:101D1C00AE008030B0047F30B1043B08B200320812
:101D2C00B1043108AD003008AC002F08AB002E0810
:101D3C00AA00FF2F4208031DA42EA52EAE2E0030A4
:101D4C00AD000030AC000030AB000030AA00FF2F1B
:101D5C004208B200B3013308B50043083202B400A4
:101D6C00031CB50334087F3EBC0035080318013E44
:101D7C00003EBD003108BA003008B9002F08B80089
:101D8C002E08B7000030B1000030B0000030AF00BA
:101D9C000030AE000030C1000030C0000030BF0089
:101DAC000030BE00C301242F43080319DE2EDF2EA2
:101DBC00FF2E0130B2000310B70DB80DB90DBA0DDE
:101DCC00B20BE12E0130B2000310AE0DAF0DB00D11
:101DDC00B10DB20BEA2EC11FF42EF52EF62E2E14D9
:101DEC000130B2000310BE0DBF0DC00DC10DB20B02
:101DFC00F82E2D083A02031D0D2F2C083902031D55
:101E0C000D2F2B083802031D0D2F2A083702031C37
:101E1C00102F112F202F41172A08B7022B08031C53
:101E2C002B0FB8022C08031C2C0FB9022D08031C15
:101E3C002D0FBA020130B2003208C3071A30430228
:101E4C00031C292F2A2FDA2E3A08390438043704B8
:101E5C000319312F322F512F3E14512F0130B20064
:101E6C000310AE0DAF0DB00DB10DB20B362FC11F5F
:101E7C00402F412F422F2E140130B2000310BE0D03
:101E8C00BF0DC00DC10DB20B442FFF30BC070318A2
:101E9C00BD0AFF30BD07B01F542F552F342FC3017F
:101EAC00C11F592F5A2F762FFF303E05B200FF303D
:101EBC003F05B300FF304005B4007F304105B5004D
:101ECC00350834043304320403196D2F6E2F712F2F
:101EDC00C301C30A762F2E1C742F752F762F6E2FED
:101EEC00430803197A2F7B2FAC2F0130AE0700303B
:101EFC0003180130AF07003003180130B007003071
:101F0C0003180130B107311C8C2F8D2FAC2F2E08EC
:101F1C00B2002F08B3003008B4003108B50001300E
:101F2C00B600350DB50CB40CB30CB20CB60B972F28
:101F3C003508B1003408B0003308AF003208AE00E9
:101F4C000130BC070318BD0A0030BD073D08803ABC
:101F5C00FF0080307F02031DB52FFF303C02031CB5
:101F6C00B82FB92FC72FFF3083120313BC000030DA
:101F7C00BD000030B1000030B0000030AF000030C8
:101F8C00AE00831203133D08803AFF0080307F02BD
:101F9C00031DD22F01303C020318D52FD62FE32F6F
:101FAC0083120313BC01BD010030B1000030B0003E
:101FBC000030AF000030AE00BB01831203133C08AD
:101FCC00B2003208C200421CEC2FED2FEF2FB017DD
:101FDC00F32F7F30B2003208B0054208B200031074
:101FEC00320CB3003308B1003B08B2003208B10424
:041FFC00972E080014
:04400E00D4E0FFFFFC
:00000001FF
