:020000040000FA
:060000000A128A110C280F
:10000800FE00030EF1000A08F2000A128A118C2879
:100018000A128A110F28F601F701F801F901830184
:100028000A128A11F128F5006928831603130F179D
:100038008F160F168F110F158F100F148B2883161C
:1000480003130F178F160F128F110F158F100F1420
:100058008B28831603130F178F120F168F110F1586
:100068008F100F148B28831603130F178F120F127C
:100078008F110F158F100F148B28831603130F136E
:100088008F160F168F110F158F100F148B288316CC
:1000980003130F138F160F128F110F158F100F14D4
:1000A8008B28831603130F138F120F168F110F153A
:1000B8008F100F148B28831603130F138F120F1230
:1000C8008F110F118F140F148B287508F300F4018A
:1000D8007408003A031971288B287308003A031929
:1000E8001928013A03192328033A03192D28013A3C
:1000F80003193728073A03194128013A03194B28ED
:10010800033A03195528013A03195F288B28080078
:10011800831203138C1D91289228EA281412141BA9
:10012800962897289B28941F9A289B28A22813086A
:10013800F0007008F70014139413141683160313B1
:10014800941AA728A828C7281419AB28AC28C728A8
:10015800831203131308F0007008F7008C111416AB
:1001680083160313141CB928BA28B428831203135E
:100178001308F0007008F900790886005330F00081
:10018800F00BC428E728941ACA28CB28E728141D9E
:10019800CE28CF28E728831203131308F00070082D
:1001A800F700831603131410831203130608930031
:1001B80014165330F000F00BDF28831603131418BD
:1001C800E628E728E128831203138C1172088A00B5
:1001D800710E8300FE0E7E0E09000A128A112B2171
:1001E8000A128A1101300A128A1117200A128A117A
:1001F8007908831203138600033083120313A200C5
:100208008A30A1005530A000A00B0829A10B0829AD
:10021800A20B0829FC280A128A110C2880308316A0
:100228000313940073089300363083120313940069
:100238000130831603139100871507168B170B17C8
:10024800831203138C11831603138C15080083166D
:100258000317880189018316031386018801831215
:100268000313860188015030F3000030F4000A12AD
:0A0278008A1112210A128A110800EF
:04400E00D4E0FFFFFC
:00000001FF
