:020000040000FA
:060000000A128A110C280F
:10000800FE00030EFA000A08FB000A128A112028D3
:100018000A128A110F28F001F101F201F301F4012B
:10002800F501F601F701F80183120313A001A101FC
:1000380083010A128A1197288B13831203138C1DCC
:100048002628272870281412941B2B282C2830289F
:10005800141F2F28302837281308F9007908F000D2
:100068009413141314168316031314193C283D28EB
:100078005328831203131308F9007908F000831634
:100088000313141C48284928432883120313130810
:10009800F9007908F8007808860014166528141DF8
:1000A800562857286528831203131308F90079087E
:1000B800F0008316031314107008831203139300BF
:1000C80014166330F900F90B67286A28831603139E
:1000D80014186F2870286A2883128C118B177B08D4
:1000E8008A007A0E8300FE0E7E0E09008030831689
:1000F8000313940083120313220883160313930037
:1001080036308312031394000130831603139100D1
:10011800871507168B170B17831203138C11831679
:1001280003138C1508000A128A11AB200A128A11CF
:10013800503083120313A2000030A3000A128A1160
:100148007A200A128A11A7280A128A110C28831603
:100158000313860183120313860183160313850193
:100168008312031385018316031788018901080088
:04400E00D4E0FFFFFC
:00000001FF
